{
  "_format": "hh-sol-artifact-1",
  "contractName": "Topi",
  "sourceName": "contracts/Topi.sol",
  "abi": [
    {
      "inputs": [
        {
          "internalType": "string",
          "name": "_baseUri",
          "type": "string"
        },
        {
          "internalType": "uint256",
          "name": "_tokenId",
          "type": "uint256"
        }
      ],
      "stateMutability": "payable",
      "type": "constructor"
    },
    {
      "anonymous": false,
      "inputs": [
        {
          "indexed": true,
          "internalType": "address",
          "name": "owner",
          "type": "address"
        },
        {
          "indexed": true,
          "internalType": "address",
          "name": "approved",
          "type": "address"
        },
        {
          "indexed": true,
          "internalType": "uint256",
          "name": "tokenId",
          "type": "uint256"
        }
      ],
      "name": "Approval",
      "type": "event"
    },
    {
      "anonymous": false,
      "inputs": [
        {
          "indexed": true,
          "internalType": "address",
          "name": "owner",
          "type": "address"
        },
        {
          "indexed": true,
          "internalType": "address",
          "name": "operator",
          "type": "address"
        },
        {
          "indexed": false,
          "internalType": "bool",
          "name": "approved",
          "type": "bool"
        }
      ],
      "name": "ApprovalForAll",
      "type": "event"
    },
    {
      "anonymous": false,
      "inputs": [
        {
          "indexed": true,
          "internalType": "address",
          "name": "from",
          "type": "address"
        },
        {
          "indexed": true,
          "internalType": "address",
          "name": "to",
          "type": "address"
        },
        {
          "indexed": true,
          "internalType": "uint256",
          "name": "tokenId",
          "type": "uint256"
        }
      ],
      "name": "Transfer",
      "type": "event"
    },
    {
      "anonymous": false,
      "inputs": [
        {
          "indexed": false,
          "internalType": "address",
          "name": "",
          "type": "address"
        },
        {
          "indexed": false,
          "internalType": "uint256",
          "name": "",
          "type": "uint256"
        }
      ],
      "name": "nftBought",
      "type": "event"
    },
    {
      "inputs": [
        {
          "internalType": "address",
          "name": "to",
          "type": "address"
        },
        {
          "internalType": "uint256",
          "name": "tokenId",
          "type": "uint256"
        }
      ],
      "name": "approve",
      "outputs": [],
      "stateMutability": "nonpayable",
      "type": "function"
    },
    {
      "inputs": [
        {
          "internalType": "address",
          "name": "owner",
          "type": "address"
        }
      ],
      "name": "balanceOf",
      "outputs": [
        {
          "internalType": "uint256",
          "name": "",
          "type": "uint256"
        }
      ],
      "stateMutability": "view",
      "type": "function"
    },
    {
      "inputs": [],
      "name": "buyNft",
      "outputs": [],
      "stateMutability": "payable",
      "type": "function"
    },
    {
      "inputs": [],
      "name": "getAllOwners",
      "outputs": [
        {
          "components": [
            {
              "internalType": "address",
              "name": "addressOfOwner",
              "type": "address"
            },
            {
              "internalType": "uint256",
              "name": "timeStamp",
              "type": "uint256"
            }
          ],
          "internalType": "struct Topi.ownerDetail[]",
          "name": "",
          "type": "tuple[]"
        }
      ],
      "stateMutability": "view",
      "type": "function"
    },
    {
      "inputs": [
        {
          "internalType": "uint256",
          "name": "tokenId",
          "type": "uint256"
        }
      ],
      "name": "getApproved",
      "outputs": [
        {
          "internalType": "address",
          "name": "",
          "type": "address"
        }
      ],
      "stateMutability": "view",
      "type": "function"
    },
    {
      "inputs": [],
      "name": "getCurrentOwner",
      "outputs": [
        {
          "components": [
            {
              "internalType": "address",
              "name": "addressOfOwner",
              "type": "address"
            },
            {
              "internalType": "uint256",
              "name": "timeStamp",
              "type": "uint256"
            }
          ],
          "internalType": "struct Topi.ownerDetail",
          "name": "",
          "type": "tuple"
        }
      ],
      "stateMutability": "view",
      "type": "function"
    },
    {
      "inputs": [],
      "name": "getCurrentPrice",
      "outputs": [
        {
          "internalType": "uint256",
          "name": "",
          "type": "uint256"
        }
      ],
      "stateMutability": "view",
      "type": "function"
    },
    {
      "inputs": [
        {
          "internalType": "address",
          "name": "owner",
          "type": "address"
        },
        {
          "internalType": "address",
          "name": "operator",
          "type": "address"
        }
      ],
      "name": "isApprovedForAll",
      "outputs": [
        {
          "internalType": "bool",
          "name": "",
          "type": "bool"
        }
      ],
      "stateMutability": "view",
      "type": "function"
    },
    {
      "inputs": [],
      "name": "name",
      "outputs": [
        {
          "internalType": "string",
          "name": "",
          "type": "string"
        }
      ],
      "stateMutability": "view",
      "type": "function"
    },
    {
      "inputs": [
        {
          "internalType": "uint256",
          "name": "tokenId",
          "type": "uint256"
        }
      ],
      "name": "ownerOf",
      "outputs": [
        {
          "internalType": "address",
          "name": "",
          "type": "address"
        }
      ],
      "stateMutability": "view",
      "type": "function"
    },
    {
      "inputs": [
        {
          "internalType": "address",
          "name": "from",
          "type": "address"
        },
        {
          "internalType": "address",
          "name": "to",
          "type": "address"
        },
        {
          "internalType": "uint256",
          "name": "tokenId",
          "type": "uint256"
        }
      ],
      "name": "safeTransferFrom",
      "outputs": [],
      "stateMutability": "nonpayable",
      "type": "function"
    },
    {
      "inputs": [
        {
          "internalType": "address",
          "name": "from",
          "type": "address"
        },
        {
          "internalType": "address",
          "name": "to",
          "type": "address"
        },
        {
          "internalType": "uint256",
          "name": "tokenId",
          "type": "uint256"
        },
        {
          "internalType": "bytes",
          "name": "_data",
          "type": "bytes"
        }
      ],
      "name": "safeTransferFrom",
      "outputs": [],
      "stateMutability": "nonpayable",
      "type": "function"
    },
    {
      "inputs": [
        {
          "internalType": "address",
          "name": "operator",
          "type": "address"
        },
        {
          "internalType": "bool",
          "name": "approved",
          "type": "bool"
        }
      ],
      "name": "setApprovalForAll",
      "outputs": [],
      "stateMutability": "nonpayable",
      "type": "function"
    },
    {
      "inputs": [
        {
          "internalType": "bytes4",
          "name": "interfaceId",
          "type": "bytes4"
        }
      ],
      "name": "supportsInterface",
      "outputs": [
        {
          "internalType": "bool",
          "name": "",
          "type": "bool"
        }
      ],
      "stateMutability": "view",
      "type": "function"
    },
    {
      "inputs": [],
      "name": "symbol",
      "outputs": [
        {
          "internalType": "string",
          "name": "",
          "type": "string"
        }
      ],
      "stateMutability": "view",
      "type": "function"
    },
    {
      "inputs": [
        {
          "internalType": "uint256",
          "name": "tokenId",
          "type": "uint256"
        }
      ],
      "name": "tokenURI",
      "outputs": [
        {
          "internalType": "string",
          "name": "",
          "type": "string"
        }
      ],
      "stateMutability": "view",
      "type": "function"
    },
    {
      "inputs": [
        {
          "internalType": "address",
          "name": "from",
          "type": "address"
        },
        {
          "internalType": "address",
          "name": "to",
          "type": "address"
        },
        {
          "internalType": "uint256",
          "name": "tokenId",
          "type": "uint256"
        }
      ],
      "name": "transferFrom",
      "outputs": [],
      "stateMutability": "nonpayable",
      "type": "function"
    }
  ],
  "bytecode": "0x608060405260405162003b2f38038062003b2f83398181016040528101906200002991906200086e565b6040518060400160405280600481526020017f546f7069000000000000000000000000000000000000000000000000000000008152506040518060400160405280600481526020017f544f5049000000000000000000000000000000000000000000000000000000008152508160009080519060200190620000ad929190620006f2565b508060019080519060200190620000c6929190620006f2565b50505033600760006101000a81548173ffffffffffffffffffffffffffffffffffffffff021916908373ffffffffffffffffffffffffffffffffffffffff160217905550816006908051906020019062000122929190620006f2565b506200013533826200018760201b60201c565b670de0b6b3a76400006008819055506200017f60405180604001604052803373ffffffffffffffffffffffffffffffffffffffff16815260200142815250620001ad60201b60201c565b505062000dc2565b620001a98282604051806020016040528060008152506200022f60201b60201c565b5050565b600981908060018154018082558091505060019003906000526020600020906002020160009091909190915060008201518160000160006101000a81548173ffffffffffffffffffffffffffffffffffffffff021916908373ffffffffffffffffffffffffffffffffffffffff16021790555060208201518160010155505050565b6200024183836200029d60201b60201c565b6200025660008484846200049760201b60201c565b62000298576040517f08c379a00000000000000000000000000000000000000000000000000000000081526004016200028f90620009f4565b60405180910390fd5b505050565b600073ffffffffffffffffffffffffffffffffffffffff168273ffffffffffffffffffffffffffffffffffffffff16141562000310576040517f08c379a0000000000000000000000000000000000000000000000000000000008152600401620003079062000a38565b60405180910390fd5b62000321816200065160201b60201c565b1562000364576040517f08c379a00000000000000000000000000000000000000000000000000000000081526004016200035b9062000a16565b60405180910390fd5b6200037860008383620006bd60201b60201c565b6001600360008473ffffffffffffffffffffffffffffffffffffffff1673ffffffffffffffffffffffffffffffffffffffff1681526020019081526020016000206000828254620003ca919062000ae6565b92505081905550816002600083815260200190815260200160002060006101000a81548173ffffffffffffffffffffffffffffffffffffffff021916908373ffffffffffffffffffffffffffffffffffffffff160217905550808273ffffffffffffffffffffffffffffffffffffffff16600073ffffffffffffffffffffffffffffffffffffffff167fddf252ad1be2c89b69c2b068fc378daa952ba7f163c4a11628f55a4df523b3ef60405160405180910390a46200049360008383620006c260201b60201c565b5050565b6000620004c58473ffffffffffffffffffffffffffffffffffffffff16620006c760201b62000eab1760201c565b1562000644578373ffffffffffffffffffffffffffffffffffffffff1663150b7a02620004f7620006ea60201b60201c565b8786866040518563ffffffff1660e01b81526004016200051b9493929190620009a0565b602060405180830381600087803b1580156200053657600080fd5b505af19250505080156200056a57506040513d601f19601f8201168201806040525081019062000567919062000842565b60015b620005f3573d80600081146200059d576040519150601f19603f3d011682016040523d82523d6000602084013e620005a2565b606091505b50600081511415620005eb576040517f08c379a0000000000000000000000000000000000000000000000000000000008152600401620005e290620009f4565b60405180910390fd5b805181602001fd5b63150b7a0260e01b7bffffffffffffffffffffffffffffffffffffffffffffffffffffffff1916817bffffffffffffffffffffffffffffffffffffffffffffffffffffffff19161491505062000649565b600190505b949350505050565b60008073ffffffffffffffffffffffffffffffffffffffff166002600084815260200190815260200160002060009054906101000a900473ffffffffffffffffffffffffffffffffffffffff1673ffffffffffffffffffffffffffffffffffffffff1614159050919050565b505050565b505050565b6000808273ffffffffffffffffffffffffffffffffffffffff163b119050919050565b600033905090565b828054620007009062000be3565b90600052602060002090601f01602090048101928262000724576000855562000770565b82601f106200073f57805160ff191683800117855562000770565b8280016001018555821562000770579182015b828111156200076f57825182559160200191906001019062000752565b5b5090506200077f919062000783565b5090565b5b808211156200079e57600081600090555060010162000784565b5090565b6000620007b9620007b38462000a83565b62000a5a565b905082815260208101848484011115620007d257600080fd5b620007df84828562000bad565b509392505050565b600081519050620007f88162000d8e565b92915050565b600082601f8301126200081057600080fd5b815162000822848260208601620007a2565b91505092915050565b6000815190506200083c8162000da8565b92915050565b6000602082840312156200085557600080fd5b60006200086584828501620007e7565b91505092915050565b600080604083850312156200088257600080fd5b600083015167ffffffffffffffff8111156200089d57600080fd5b620008ab85828601620007fe565b9250506020620008be858286016200082b565b9150509250929050565b620008d38162000b43565b82525050565b6000620008e68262000ab9565b620008f2818562000ac4565b93506200090481856020860162000bad565b6200090f8162000cdc565b840191505092915050565b60006200092960328362000ad5565b9150620009368262000ced565b604082019050919050565b600062000950601c8362000ad5565b91506200095d8262000d3c565b602082019050919050565b60006200097760208362000ad5565b9150620009848262000d65565b602082019050919050565b6200099a8162000ba3565b82525050565b6000608082019050620009b76000830187620008c8565b620009c66020830186620008c8565b620009d560408301856200098f565b8181036060830152620009e98184620008d9565b905095945050505050565b6000602082019050818103600083015262000a0f816200091a565b9050919050565b6000602082019050818103600083015262000a318162000941565b9050919050565b6000602082019050818103600083015262000a538162000968565b9050919050565b600062000a6662000a79565b905062000a74828262000c19565b919050565b6000604051905090565b600067ffffffffffffffff82111562000aa15762000aa062000cad565b5b62000aac8262000cdc565b9050602081019050919050565b600081519050919050565b600082825260208201905092915050565b600082825260208201905092915050565b600062000af38262000ba3565b915062000b008362000ba3565b9250827fffffffffffffffffffffffffffffffffffffffffffffffffffffffffffffffff0382111562000b385762000b3762000c4f565b5b828201905092915050565b600062000b508262000b83565b9050919050565b60007fffffffff0000000000000000000000000000000000000000000000000000000082169050919050565b600073ffffffffffffffffffffffffffffffffffffffff82169050919050565b6000819050919050565b60005b8381101562000bcd57808201518184015260208101905062000bb0565b8381111562000bdd576000848401525b50505050565b6000600282049050600182168062000bfc57607f821691505b6020821081141562000c135762000c1262000c7e565b5b50919050565b62000c248262000cdc565b810181811067ffffffffffffffff8211171562000c465762000c4562000cad565b5b80604052505050565b7f4e487b7100000000000000000000000000000000000000000000000000000000600052601160045260246000fd5b7f4e487b7100000000000000000000000000000000000000000000000000000000600052602260045260246000fd5b7f4e487b7100000000000000000000000000000000000000000000000000000000600052604160045260246000fd5b6000601f19601f8301169050919050565b7f4552433732313a207472616e7366657220746f206e6f6e20455243373231526560008201527f63656976657220696d706c656d656e7465720000000000000000000000000000602082015250565b7f4552433732313a20746f6b656e20616c7265616479206d696e74656400000000600082015250565b7f4552433732313a206d696e7420746f20746865207a65726f2061646472657373600082015250565b62000d998162000b57565b811462000da557600080fd5b50565b62000db38162000ba3565b811462000dbf57600080fd5b50565b612d5d8062000dd26000396000f3fe6080604052600436106100fe5760003560e01c806370a0823111610095578063b88d4fde11610064578063b88d4fde14610347578063c87b56dd14610370578063e69257c2146103ad578063e985e9c5146103b7578063eb91d37e146103f4576100fe565b806370a082311461028b57806395d89b41146102c8578063a18a186b146102f3578063a22cb4651461031e576100fe565b806316c12746116100d157806316c12746146101d157806323b872dd146101fc57806342842e0e146102255780636352211e1461024e576100fe565b806301ffc9a71461010357806306fdde0314610140578063081812fc1461016b578063095ea7b3146101a8575b600080fd5b34801561010f57600080fd5b5061012a60048036038101906101259190611d28565b61041f565b6040516101379190612225565b60405180910390f35b34801561014c57600080fd5b50610155610501565b6040516101629190612240565b60405180910390f35b34801561017757600080fd5b50610192600480360381019061018d9190611d7a565b610593565b60405161019f9190612173565b60405180910390f35b3480156101b457600080fd5b506101cf60048036038101906101ca9190611cec565b610618565b005b3480156101dd57600080fd5b506101e6610730565b6040516101f39190612203565b60405180910390f35b34801561020857600080fd5b50610223600480360381019061021e9190611be6565b6107ef565b005b34801561023157600080fd5b5061024c60048036038101906102479190611be6565b61084f565b005b34801561025a57600080fd5b5061027560048036038101906102709190611d7a565b61086f565b6040516102829190612173565b60405180910390f35b34801561029757600080fd5b506102b260048036038101906102ad9190611b81565b610921565b6040516102bf919061243d565b60405180910390f35b3480156102d457600080fd5b506102dd6109d9565b6040516102ea9190612240565b60405180910390f35b3480156102ff57600080fd5b50610308610a6b565b6040516103159190612422565b60405180910390f35b34801561032a57600080fd5b5061034560048036038101906103409190611cb0565b610b3c565b005b34801561035357600080fd5b5061036e60048036038101906103699190611c35565b610b52565b005b34801561037c57600080fd5b5061039760048036038101906103929190611d7a565b610bb4565b6040516103a49190612240565b60405180910390f35b6103b5610c5b565b005b3480156103c357600080fd5b506103de60048036038101906103d99190611baa565b610e0d565b6040516103eb9190612225565b60405180910390f35b34801561040057600080fd5b50610409610ea1565b604051610416919061243d565b60405180910390f35b60007f80ac58cd000000000000000000000000000000000000000000000000000000007bffffffffffffffffffffffffffffffffffffffffffffffffffffffff1916827bffffffffffffffffffffffffffffffffffffffffffffffffffffffff191614806104ea57507f5b5e139f000000000000000000000000000000000000000000000000000000007bffffffffffffffffffffffffffffffffffffffffffffffffffffffff1916827bffffffffffffffffffffffffffffffffffffffffffffffffffffffff1916145b806104fa57506104f982610ece565b5b9050919050565b606060008054610510906126f5565b80601f016020809104026020016040519081016040528092919081815260200182805461053c906126f5565b80156105895780601f1061055e57610100808354040283529160200191610589565b820191906000526020600020905b81548152906001019060200180831161056c57829003601f168201915b5050505050905090565b600061059e82610f38565b6105dd576040517f08c379a00000000000000000000000000000000000000000000000000000000081526004016105d4906123a2565b60405180910390fd5b6004600083815260200190815260200160002060009054906101000a900473ffffffffffffffffffffffffffffffffffffffff169050919050565b60006106238261086f565b90508073ffffffffffffffffffffffffffffffffffffffff168373ffffffffffffffffffffffffffffffffffffffff161415610694576040517f08c379a000000000000000000000000000000000000000000000000000000000815260040161068b906123e2565b60405180910390fd5b8073ffffffffffffffffffffffffffffffffffffffff166106b3610fa4565b73ffffffffffffffffffffffffffffffffffffffff1614806106e257506106e1816106dc610fa4565b610e0d565b5b610721576040517f08c379a000000000000000000000000000000000000000000000000000000000815260040161071890612342565b60405180910390fd5b61072b8383610fac565b505050565b60606009805480602002602001604051908101604052809291908181526020016000905b828210156107e657838290600052602060002090600202016040518060400160405290816000820160009054906101000a900473ffffffffffffffffffffffffffffffffffffffff1673ffffffffffffffffffffffffffffffffffffffff1673ffffffffffffffffffffffffffffffffffffffff16815260200160018201548152505081526020019060010190610754565b50505050905090565b6108006107fa610fa4565b82611065565b61083f576040517f08c379a000000000000000000000000000000000000000000000000000000000815260040161083690612402565b60405180910390fd5b61084a838383611143565b505050565b61086a83838360405180602001604052806000815250610b52565b505050565b6000806002600084815260200190815260200160002060009054906101000a900473ffffffffffffffffffffffffffffffffffffffff169050600073ffffffffffffffffffffffffffffffffffffffff168173ffffffffffffffffffffffffffffffffffffffff161415610918576040517f08c379a000000000000000000000000000000000000000000000000000000000815260040161090f90612382565b60405180910390fd5b80915050919050565b60008073ffffffffffffffffffffffffffffffffffffffff168273ffffffffffffffffffffffffffffffffffffffff161415610992576040517f08c379a000000000000000000000000000000000000000000000000000000000815260040161098990612362565b60405180910390fd5b600360008373ffffffffffffffffffffffffffffffffffffffff1673ffffffffffffffffffffffffffffffffffffffff168152602001908152602001600020549050919050565b6060600180546109e8906126f5565b80601f0160208091040260200160405190810160405280929190818152602001828054610a14906126f5565b8015610a615780601f10610a3657610100808354040283529160200191610a61565b820191906000526020600020905b815481529060010190602001808311610a4457829003601f168201915b5050505050905090565b610a73611a80565b60096001600980549050610a87919061260b565b81548110610abe577f4e487b7100000000000000000000000000000000000000000000000000000000600052603260045260246000fd5b90600052602060002090600202016040518060400160405290816000820160009054906101000a900473ffffffffffffffffffffffffffffffffffffffff1673ffffffffffffffffffffffffffffffffffffffff1673ffffffffffffffffffffffffffffffffffffffff168152602001600182015481525050905090565b610b4e610b47610fa4565b83836113aa565b5050565b610b63610b5d610fa4565b83611065565b610ba2576040517f08c379a0000000000000000000000000000000000000000000000000000000008152600401610b9990612402565b60405180910390fd5b610bae84848484611517565b50505050565b6060610bbf82610f38565b610bfe576040517f08c379a0000000000000000000000000000000000000000000000000000000008152600401610bf5906123c2565b60405180910390fd5b6000610c08611573565b90506000815111610c285760405180602001604052806000815250610c53565b80610c3284611605565b604051602001610c4392919061214f565b6040516020818303038152906040525b915050919050565b610c636117b2565b610ca2576040517f08c379a0000000000000000000000000000000000000000000000000000000008152600401610c99906122c2565b60405180910390fd5b6008543414610ce6576040517f08c379a0000000000000000000000000000000000000000000000000000000008152600401610cdd90612262565b60405180910390fd5b610cf53333600060ff16611143565b610d2860405180604001604052803373ffffffffffffffffffffffffffffffffffffffff168152602001428152506117f9565b60006008546064600854600a610d3e91906125b1565b610d489190612580565b610d52919061252a565b9050600760009054906101000a900473ffffffffffffffffffffffffffffffffffffffff1673ffffffffffffffffffffffffffffffffffffffff166108fc60085483610d9e919061260b565b9081150290604051600060405180830381858888f19350505050158015610dc9573d6000803e3d6000fd5b50806008819055507f469e1a2e6533f4513f66fd16892e14795282a90308752c89d4f98fd53eead2593334604051610e029291906121da565b60405180910390a150565b6000600560008473ffffffffffffffffffffffffffffffffffffffff1673ffffffffffffffffffffffffffffffffffffffff16815260200190815260200160002060008373ffffffffffffffffffffffffffffffffffffffff1673ffffffffffffffffffffffffffffffffffffffff16815260200190815260200160002060009054906101000a900460ff16905092915050565b6000600854905090565b6000808273ffffffffffffffffffffffffffffffffffffffff163b119050919050565b60007f01ffc9a7000000000000000000000000000000000000000000000000000000007bffffffffffffffffffffffffffffffffffffffffffffffffffffffff1916827bffffffffffffffffffffffffffffffffffffffffffffffffffffffff1916149050919050565b60008073ffffffffffffffffffffffffffffffffffffffff166002600084815260200190815260200160002060009054906101000a900473ffffffffffffffffffffffffffffffffffffffff1673ffffffffffffffffffffffffffffffffffffffff1614159050919050565b600033905090565b816004600083815260200190815260200160002060006101000a81548173ffffffffffffffffffffffffffffffffffffffff021916908373ffffffffffffffffffffffffffffffffffffffff160217905550808273ffffffffffffffffffffffffffffffffffffffff1661101f8361086f565b73ffffffffffffffffffffffffffffffffffffffff167f8c5be1e5ebec7d5bd14f71427d1e84f3dd0314c0f7b2291e5b200ac8c7c3b92560405160405180910390a45050565b600061107082610f38565b6110af576040517f08c379a00000000000000000000000000000000000000000000000000000000081526004016110a690612322565b60405180910390fd5b60006110ba8361086f565b90508073ffffffffffffffffffffffffffffffffffffffff168473ffffffffffffffffffffffffffffffffffffffff16148061112957508373ffffffffffffffffffffffffffffffffffffffff1661111184610593565b73ffffffffffffffffffffffffffffffffffffffff16145b8061113a57506111398185610e0d565b5b91505092915050565b8273ffffffffffffffffffffffffffffffffffffffff166111638261086f565b73ffffffffffffffffffffffffffffffffffffffff16146111b9576040517f08c379a00000000000000000000000000000000000000000000000000000000081526004016111b0906122a2565b60405180910390fd5b600073ffffffffffffffffffffffffffffffffffffffff168273ffffffffffffffffffffffffffffffffffffffff161415611229576040517f08c379a0000000000000000000000000000000000000000000000000000000008152600401611220906122e2565b60405180910390fd5b61123483838361187b565b61123f600082610fac565b6001600360008573ffffffffffffffffffffffffffffffffffffffff1673ffffffffffffffffffffffffffffffffffffffff168152602001908152602001600020600082825461128f919061260b565b925050819055506001600360008473ffffffffffffffffffffffffffffffffffffffff1673ffffffffffffffffffffffffffffffffffffffff16815260200190815260200160002060008282546112e6919061252a565b92505081905550816002600083815260200190815260200160002060006101000a81548173ffffffffffffffffffffffffffffffffffffffff021916908373ffffffffffffffffffffffffffffffffffffffff160217905550808273ffffffffffffffffffffffffffffffffffffffff168473ffffffffffffffffffffffffffffffffffffffff167fddf252ad1be2c89b69c2b068fc378daa952ba7f163c4a11628f55a4df523b3ef60405160405180910390a46113a5838383611880565b505050565b8173ffffffffffffffffffffffffffffffffffffffff168373ffffffffffffffffffffffffffffffffffffffff161415611419576040517f08c379a000000000000000000000000000000000000000000000000000000000815260040161141090612302565b60405180910390fd5b80600560008573ffffffffffffffffffffffffffffffffffffffff1673ffffffffffffffffffffffffffffffffffffffff16815260200190815260200160002060008473ffffffffffffffffffffffffffffffffffffffff1673ffffffffffffffffffffffffffffffffffffffff16815260200190815260200160002060006101000a81548160ff0219169083151502179055508173ffffffffffffffffffffffffffffffffffffffff168373ffffffffffffffffffffffffffffffffffffffff167f17307eab39ab6107e8899845ad3d59bd9653f200f220920489ca2b5937696c318360405161150a9190612225565b60405180910390a3505050565b611522848484611143565b61152e84848484611885565b61156d576040517f08c379a000000000000000000000000000000000000000000000000000000000815260040161156490612282565b60405180910390fd5b50505050565b606060068054611582906126f5565b80601f01602080910402602001604051908101604052809291908181526020018280546115ae906126f5565b80156115fb5780601f106115d0576101008083540402835291602001916115fb565b820191906000526020600020905b8154815290600101906020018083116115de57829003601f168201915b5050505050905090565b6060600082141561164d576040518060400160405280600181526020017f300000000000000000000000000000000000000000000000000000000000000081525090506117ad565b600082905060005b6000821461167f57808061166890612758565b915050600a826116789190612580565b9150611655565b60008167ffffffffffffffff8111156116c1577f4e487b7100000000000000000000000000000000000000000000000000000000600052604160045260246000fd5b6040519080825280601f01601f1916602001820160405280156116f35781602001600182028036833780820191505090505b5090505b600085146117a65760018261170c919061260b565b9150600a8561171b91906127a1565b6030611727919061252a565b60f81b818381518110611763577f4e487b7100000000000000000000000000000000000000000000000000000000600052603260045260246000fd5b60200101907effffffffffffffffffffffffffffffffffffffffffffffffffffffffffffff1916908160001a905350600a8561179f9190612580565b94506116f7565b8093505050505b919050565b6000806117bd611a1c565b90506000603c82426117cf919061260b565b6117d99190612580565b905060028111156117ef576001925050506117f6565b6000925050505b90565b600981908060018154018082558091505060019003906000526020600020906002020160009091909190915060008201518160000160006101000a81548173ffffffffffffffffffffffffffffffffffffffff021916908373ffffffffffffffffffffffffffffffffffffffff16021790555060208201518160010155505050565b505050565b505050565b60006118a68473ffffffffffffffffffffffffffffffffffffffff16610eab565b15611a0f578373ffffffffffffffffffffffffffffffffffffffff1663150b7a026118cf610fa4565b8786866040518563ffffffff1660e01b81526004016118f1949392919061218e565b602060405180830381600087803b15801561190b57600080fd5b505af192505050801561193c57506040513d601f19601f820116820180604052508101906119399190611d51565b60015b6119bf573d806000811461196c576040519150601f19603f3d011682016040523d82523d6000602084013e611971565b606091505b506000815114156119b7576040517f08c379a00000000000000000000000000000000000000000000000000000000081526004016119ae90612282565b60405180910390fd5b805181602001fd5b63150b7a0260e01b7bffffffffffffffffffffffffffffffffffffffffffffffffffffffff1916817bffffffffffffffffffffffffffffffffffffffffffffffffffffffff191614915050611a14565b600190505b949350505050565b600060096001600980549050611a32919061260b565b81548110611a69577f4e487b7100000000000000000000000000000000000000000000000000000000600052603260045260246000fd5b906000526020600020906002020160010154905090565b6040518060400160405280600073ffffffffffffffffffffffffffffffffffffffff168152602001600081525090565b6000611ac3611abe8461247d565b612458565b905082815260208101848484011115611adb57600080fd5b611ae68482856126b3565b509392505050565b600081359050611afd81612ccb565b92915050565b600081359050611b1281612ce2565b92915050565b600081359050611b2781612cf9565b92915050565b600081519050611b3c81612cf9565b92915050565b600082601f830112611b5357600080fd5b8135611b63848260208601611ab0565b91505092915050565b600081359050611b7b81612d10565b92915050565b600060208284031215611b9357600080fd5b6000611ba184828501611aee565b91505092915050565b60008060408385031215611bbd57600080fd5b6000611bcb85828601611aee565b9250506020611bdc85828601611aee565b9150509250929050565b600080600060608486031215611bfb57600080fd5b6000611c0986828701611aee565b9350506020611c1a86828701611aee565b9250506040611c2b86828701611b6c565b9150509250925092565b60008060008060808587031215611c4b57600080fd5b6000611c5987828801611aee565b9450506020611c6a87828801611aee565b9350506040611c7b87828801611b6c565b925050606085013567ffffffffffffffff811115611c9857600080fd5b611ca487828801611b42565b91505092959194509250565b60008060408385031215611cc357600080fd5b6000611cd185828601611aee565b9250506020611ce285828601611b03565b9150509250929050565b60008060408385031215611cff57600080fd5b6000611d0d85828601611aee565b9250506020611d1e85828601611b6c565b9150509250929050565b600060208284031215611d3a57600080fd5b6000611d4884828501611b18565b91505092915050565b600060208284031215611d6357600080fd5b6000611d7184828501611b2d565b91505092915050565b600060208284031215611d8c57600080fd5b6000611d9a84828501611b6c565b91505092915050565b6000611daf83836120d3565b60408301905092915050565b611dc48161263f565b82525050565b611dd38161263f565b82525050565b6000611de4826124be565b611dee81856124ec565b9350611df9836124ae565b8060005b83811015611e2a578151611e118882611da3565b9750611e1c836124df565b925050600181019050611dfd565b5085935050505092915050565b611e4081612651565b82525050565b6000611e51826124c9565b611e5b81856124fd565b9350611e6b8185602086016126c2565b611e748161288e565b840191505092915050565b6000611e8a826124d4565b611e94818561250e565b9350611ea48185602086016126c2565b611ead8161288e565b840191505092915050565b6000611ec3826124d4565b611ecd818561251f565b9350611edd8185602086016126c2565b80840191505092915050565b6000611ef6602b8361250e565b9150611f018261289f565b604082019050919050565b6000611f1960328361250e565b9150611f24826128ee565b604082019050919050565b6000611f3c60258361250e565b9150611f478261293d565b604082019050919050565b6000611f5f60378361250e565b9150611f6a8261298c565b604082019050919050565b6000611f8260248361250e565b9150611f8d826129db565b604082019050919050565b6000611fa560198361250e565b9150611fb082612a2a565b602082019050919050565b6000611fc8602c8361250e565b9150611fd382612a53565b604082019050919050565b6000611feb60388361250e565b9150611ff682612aa2565b604082019050919050565b600061200e602a8361250e565b915061201982612af1565b604082019050919050565b600061203160298361250e565b915061203c82612b40565b604082019050919050565b6000612054602c8361250e565b915061205f82612b8f565b604082019050919050565b6000612077602f8361250e565b915061208282612bde565b604082019050919050565b600061209a60218361250e565b91506120a582612c2d565b604082019050919050565b60006120bd60318361250e565b91506120c882612c7c565b604082019050919050565b6040820160008201516120e96000850182611dbb565b5060208201516120fc6020850182612131565b50505050565b6040820160008201516121186000850182611dbb565b50602082015161212b6020850182612131565b50505050565b61213a816126a9565b82525050565b612149816126a9565b82525050565b600061215b8285611eb8565b91506121678284611eb8565b91508190509392505050565b60006020820190506121886000830184611dca565b92915050565b60006080820190506121a36000830187611dca565b6121b06020830186611dca565b6121bd6040830185612140565b81810360608301526121cf8184611e46565b905095945050505050565b60006040820190506121ef6000830185611dca565b6121fc6020830184612140565b9392505050565b6000602082019050818103600083015261221d8184611dd9565b905092915050565b600060208201905061223a6000830184611e37565b92915050565b6000602082019050818103600083015261225a8184611e7f565b905092915050565b6000602082019050818103600083015261227b81611ee9565b9050919050565b6000602082019050818103600083015261229b81611f0c565b9050919050565b600060208201905081810360008301526122bb81611f2f565b9050919050565b600060208201905081810360008301526122db81611f52565b9050919050565b600060208201905081810360008301526122fb81611f75565b9050919050565b6000602082019050818103600083015261231b81611f98565b9050919050565b6000602082019050818103600083015261233b81611fbb565b9050919050565b6000602082019050818103600083015261235b81611fde565b9050919050565b6000602082019050818103600083015261237b81612001565b9050919050565b6000602082019050818103600083015261239b81612024565b9050919050565b600060208201905081810360008301526123bb81612047565b9050919050565b600060208201905081810360008301526123db8161206a565b9050919050565b600060208201905081810360008301526123fb8161208d565b9050919050565b6000602082019050818103600083015261241b816120b0565b9050919050565b60006040820190506124376000830184612102565b92915050565b60006020820190506124526000830184612140565b92915050565b6000612462612473565b905061246e8282612727565b919050565b6000604051905090565b600067ffffffffffffffff8211156124985761249761285f565b5b6124a18261288e565b9050602081019050919050565b6000819050602082019050919050565b600081519050919050565b600081519050919050565b600081519050919050565b6000602082019050919050565b600082825260208201905092915050565b600082825260208201905092915050565b600082825260208201905092915050565b600081905092915050565b6000612535826126a9565b9150612540836126a9565b9250827fffffffffffffffffffffffffffffffffffffffffffffffffffffffffffffffff03821115612575576125746127d2565b5b828201905092915050565b600061258b826126a9565b9150612596836126a9565b9250826125a6576125a5612801565b5b828204905092915050565b60006125bc826126a9565b91506125c7836126a9565b9250817fffffffffffffffffffffffffffffffffffffffffffffffffffffffffffffffff0483118215151615612600576125ff6127d2565b5b828202905092915050565b6000612616826126a9565b9150612621836126a9565b925082821015612634576126336127d2565b5b828203905092915050565b600061264a82612689565b9050919050565b60008115159050919050565b60007fffffffff0000000000000000000000000000000000000000000000000000000082169050919050565b600073ffffffffffffffffffffffffffffffffffffffff82169050919050565b6000819050919050565b82818337600083830152505050565b60005b838110156126e05780820151818401526020810190506126c5565b838111156126ef576000848401525b50505050565b6000600282049050600182168061270d57607f821691505b6020821081141561272157612720612830565b5b50919050565b6127308261288e565b810181811067ffffffffffffffff8211171561274f5761274e61285f565b5b80604052505050565b6000612763826126a9565b91507fffffffffffffffffffffffffffffffffffffffffffffffffffffffffffffffff821415612796576127956127d2565b5b600182019050919050565b60006127ac826126a9565b91506127b7836126a9565b9250826127c7576127c6612801565b5b828206905092915050565b7f4e487b7100000000000000000000000000000000000000000000000000000000600052601160045260246000fd5b7f4e487b7100000000000000000000000000000000000000000000000000000000600052601260045260246000fd5b7f4e487b7100000000000000000000000000000000000000000000000000000000600052602260045260246000fd5b7f4e487b7100000000000000000000000000000000000000000000000000000000600052604160045260246000fd5b6000601f19601f8301169050919050565b7f45746865722073656e742073686f756c6420626520657175616c20746f20637560008201527f7272656e74205072696365000000000000000000000000000000000000000000602082015250565b7f4552433732313a207472616e7366657220746f206e6f6e20455243373231526560008201527f63656976657220696d706c656d656e7465720000000000000000000000000000602082015250565b7f4552433732313a207472616e736665722066726f6d20696e636f72726563742060008201527f6f776e6572000000000000000000000000000000000000000000000000000000602082015250565b7f4552433732313a2032206d696e20686173206e6f74206265656e20706173736560008201527f642066726f6d206c617374207472616e73616374696f6e000000000000000000602082015250565b7f4552433732313a207472616e7366657220746f20746865207a65726f2061646460008201527f7265737300000000000000000000000000000000000000000000000000000000602082015250565b7f4552433732313a20617070726f766520746f2063616c6c657200000000000000600082015250565b7f4552433732313a206f70657261746f7220717565727920666f72206e6f6e657860008201527f697374656e7420746f6b656e0000000000000000000000000000000000000000602082015250565b7f4552433732313a20617070726f76652063616c6c6572206973206e6f74206f7760008201527f6e6572206e6f7220617070726f76656420666f7220616c6c0000000000000000602082015250565b7f4552433732313a2062616c616e636520717565727920666f7220746865207a6560008201527f726f206164647265737300000000000000000000000000000000000000000000602082015250565b7f4552433732313a206f776e657220717565727920666f72206e6f6e657869737460008201527f656e7420746f6b656e0000000000000000000000000000000000000000000000602082015250565b7f4552433732313a20617070726f76656420717565727920666f72206e6f6e657860008201527f697374656e7420746f6b656e0000000000000000000000000000000000000000602082015250565b7f4552433732314d657461646174613a2055524920717565727920666f72206e6f60008201527f6e6578697374656e7420746f6b656e0000000000000000000000000000000000602082015250565b7f4552433732313a20617070726f76616c20746f2063757272656e74206f776e6560008201527f7200000000000000000000000000000000000000000000000000000000000000602082015250565b7f4552433732313a207472616e736665722063616c6c6572206973206e6f74206f60008201527f776e6572206e6f7220617070726f766564000000000000000000000000000000602082015250565b612cd48161263f565b8114612cdf57600080fd5b50565b612ceb81612651565b8114612cf657600080fd5b50565b612d028161265d565b8114612d0d57600080fd5b50565b612d19816126a9565b8114612d2457600080fd5b5056fea2646970667358221220d0e8319d1d5ea36e72faabf292185c2e019e11c8da19186bb565719246ff917364736f6c63430008010033",
  "linkReferences": {},
  "deployedLinkReferences": {}
}