{
  "_format": "hh-sol-artifact-1",
  "contractName": "Topi",
  "sourceName": "contracts/Topi.sol",
  "abi": [
    {
      "inputs": [
        {
          "internalType": "string",
          "name": "_baseUri",
          "type": "string"
        },
        {
          "internalType": "uint256",
          "name": "_tokenId",
          "type": "uint256"
        }
      ],
      "stateMutability": "payable",
      "type": "constructor"
    },
    {
      "anonymous": false,
      "inputs": [
        {
          "indexed": true,
          "internalType": "address",
          "name": "owner",
          "type": "address"
        },
        {
          "indexed": true,
          "internalType": "address",
          "name": "approved",
          "type": "address"
        },
        {
          "indexed": true,
          "internalType": "uint256",
          "name": "tokenId",
          "type": "uint256"
        }
      ],
      "name": "Approval",
      "type": "event"
    },
    {
      "anonymous": false,
      "inputs": [
        {
          "indexed": true,
          "internalType": "address",
          "name": "owner",
          "type": "address"
        },
        {
          "indexed": true,
          "internalType": "address",
          "name": "operator",
          "type": "address"
        },
        {
          "indexed": false,
          "internalType": "bool",
          "name": "approved",
          "type": "bool"
        }
      ],
      "name": "ApprovalForAll",
      "type": "event"
    },
    {
      "anonymous": false,
      "inputs": [
        {
          "indexed": true,
          "internalType": "address",
          "name": "from",
          "type": "address"
        },
        {
          "indexed": true,
          "internalType": "address",
          "name": "to",
          "type": "address"
        },
        {
          "indexed": true,
          "internalType": "uint256",
          "name": "tokenId",
          "type": "uint256"
        }
      ],
      "name": "Transfer",
      "type": "event"
    },
    {
      "anonymous": false,
      "inputs": [
        {
          "indexed": false,
          "internalType": "address",
          "name": "",
          "type": "address"
        },
        {
          "indexed": false,
          "internalType": "uint256",
          "name": "",
          "type": "uint256"
        }
      ],
      "name": "nftBought",
      "type": "event"
    },
    {
      "inputs": [
        {
          "internalType": "address",
          "name": "to",
          "type": "address"
        },
        {
          "internalType": "uint256",
          "name": "tokenId",
          "type": "uint256"
        }
      ],
      "name": "approve",
      "outputs": [],
      "stateMutability": "nonpayable",
      "type": "function"
    },
    {
      "inputs": [
        {
          "internalType": "address",
          "name": "owner",
          "type": "address"
        }
      ],
      "name": "balanceOf",
      "outputs": [
        {
          "internalType": "uint256",
          "name": "",
          "type": "uint256"
        }
      ],
      "stateMutability": "view",
      "type": "function"
    },
    {
      "inputs": [
        {
          "internalType": "uint256",
          "name": "amount",
          "type": "uint256"
        }
      ],
      "name": "buyNft",
      "outputs": [],
      "stateMutability": "payable",
      "type": "function"
    },
    {
      "inputs": [
        {
          "internalType": "uint256",
          "name": "tokenId",
          "type": "uint256"
        }
      ],
      "name": "getApproved",
      "outputs": [
        {
          "internalType": "address",
          "name": "",
          "type": "address"
        }
      ],
      "stateMutability": "view",
      "type": "function"
    },
    {
      "inputs": [],
      "name": "getCurrentOwner",
      "outputs": [
        {
          "internalType": "address",
          "name": "",
          "type": "address"
        },
        {
          "internalType": "uint256",
          "name": "",
          "type": "uint256"
        }
      ],
      "stateMutability": "view",
      "type": "function"
    },
    {
      "inputs": [],
      "name": "getCurrentPrice",
      "outputs": [
        {
          "internalType": "uint256",
          "name": "",
          "type": "uint256"
        }
      ],
      "stateMutability": "view",
      "type": "function"
    },
    {
      "inputs": [
        {
          "internalType": "address",
          "name": "owner",
          "type": "address"
        },
        {
          "internalType": "address",
          "name": "operator",
          "type": "address"
        }
      ],
      "name": "isApprovedForAll",
      "outputs": [
        {
          "internalType": "bool",
          "name": "",
          "type": "bool"
        }
      ],
      "stateMutability": "view",
      "type": "function"
    },
    {
      "inputs": [],
      "name": "name",
      "outputs": [
        {
          "internalType": "string",
          "name": "",
          "type": "string"
        }
      ],
      "stateMutability": "view",
      "type": "function"
    },
    {
      "inputs": [
        {
          "internalType": "uint256",
          "name": "tokenId",
          "type": "uint256"
        }
      ],
      "name": "ownerOf",
      "outputs": [
        {
          "internalType": "address",
          "name": "",
          "type": "address"
        }
      ],
      "stateMutability": "view",
      "type": "function"
    },
    {
      "inputs": [
        {
          "internalType": "address",
          "name": "from",
          "type": "address"
        },
        {
          "internalType": "address",
          "name": "to",
          "type": "address"
        },
        {
          "internalType": "uint256",
          "name": "tokenId",
          "type": "uint256"
        }
      ],
      "name": "safeTransferFrom",
      "outputs": [],
      "stateMutability": "nonpayable",
      "type": "function"
    },
    {
      "inputs": [
        {
          "internalType": "address",
          "name": "from",
          "type": "address"
        },
        {
          "internalType": "address",
          "name": "to",
          "type": "address"
        },
        {
          "internalType": "uint256",
          "name": "tokenId",
          "type": "uint256"
        },
        {
          "internalType": "bytes",
          "name": "_data",
          "type": "bytes"
        }
      ],
      "name": "safeTransferFrom",
      "outputs": [],
      "stateMutability": "nonpayable",
      "type": "function"
    },
    {
      "inputs": [
        {
          "internalType": "address",
          "name": "operator",
          "type": "address"
        },
        {
          "internalType": "bool",
          "name": "approved",
          "type": "bool"
        }
      ],
      "name": "setApprovalForAll",
      "outputs": [],
      "stateMutability": "nonpayable",
      "type": "function"
    },
    {
      "inputs": [
        {
          "internalType": "bytes4",
          "name": "interfaceId",
          "type": "bytes4"
        }
      ],
      "name": "supportsInterface",
      "outputs": [
        {
          "internalType": "bool",
          "name": "",
          "type": "bool"
        }
      ],
      "stateMutability": "view",
      "type": "function"
    },
    {
      "inputs": [],
      "name": "symbol",
      "outputs": [
        {
          "internalType": "string",
          "name": "",
          "type": "string"
        }
      ],
      "stateMutability": "view",
      "type": "function"
    },
    {
      "inputs": [
        {
          "internalType": "uint256",
          "name": "tokenId",
          "type": "uint256"
        }
      ],
      "name": "tokenURI",
      "outputs": [
        {
          "internalType": "string",
          "name": "",
          "type": "string"
        }
      ],
      "stateMutability": "view",
      "type": "function"
    },
    {
      "inputs": [
        {
          "internalType": "address",
          "name": "from",
          "type": "address"
        },
        {
          "internalType": "address",
          "name": "to",
          "type": "address"
        },
        {
          "internalType": "uint256",
          "name": "tokenId",
          "type": "uint256"
        }
      ],
      "name": "transferFrom",
      "outputs": [],
      "stateMutability": "nonpayable",
      "type": "function"
    }
  ],
  "bytecode": "0x60806040526040516200374d3803806200374d83398181016040528101906200002991906200088b565b6040518060400160405280600481526020017f546f7069000000000000000000000000000000000000000000000000000000008152506040518060400160405280600481526020017f544f5049000000000000000000000000000000000000000000000000000000008152508160009080519060200190620000ad9291906200070f565b508060019080519060200190620000c69291906200070f565b50505033600760006101000a81548173ffffffffffffffffffffffffffffffffffffffff021916908373ffffffffffffffffffffffffffffffffffffffff1602179055508160069080519060200190620001229291906200070f565b506200013533826200018f60201b60201c565b6000600881905550670de0b6b3a76400006009819055506200018760405180604001604052803373ffffffffffffffffffffffffffffffffffffffff16815260200142815250620001b560201b60201c565b505062000ddf565b620001b18282604051806020016040528060008152506200024c60201b60201c565b5050565b80600a60006001600854620001cb919062000b03565b815260200190815260200160002060008201518160000160006101000a81548173ffffffffffffffffffffffffffffffffffffffff021916908373ffffffffffffffffffffffffffffffffffffffff1602179055506020820151816001015590505060016008600082825462000242919062000b03565b9250508190555050565b6200025e8383620002ba60201b60201c565b620002736000848484620004b460201b60201c565b620002b5576040517f08c379a0000000000000000000000000000000000000000000000000000000008152600401620002ac9062000a11565b60405180910390fd5b505050565b600073ffffffffffffffffffffffffffffffffffffffff168273ffffffffffffffffffffffffffffffffffffffff1614156200032d576040517f08c379a0000000000000000000000000000000000000000000000000000000008152600401620003249062000a55565b60405180910390fd5b6200033e816200066e60201b60201c565b1562000381576040517f08c379a0000000000000000000000000000000000000000000000000000000008152600401620003789062000a33565b60405180910390fd5b6200039560008383620006da60201b60201c565b6001600360008473ffffffffffffffffffffffffffffffffffffffff1673ffffffffffffffffffffffffffffffffffffffff1681526020019081526020016000206000828254620003e7919062000b03565b92505081905550816002600083815260200190815260200160002060006101000a81548173ffffffffffffffffffffffffffffffffffffffff021916908373ffffffffffffffffffffffffffffffffffffffff160217905550808273ffffffffffffffffffffffffffffffffffffffff16600073ffffffffffffffffffffffffffffffffffffffff167fddf252ad1be2c89b69c2b068fc378daa952ba7f163c4a11628f55a4df523b3ef60405160405180910390a4620004b060008383620006df60201b60201c565b5050565b6000620004e28473ffffffffffffffffffffffffffffffffffffffff16620006e460201b62000d301760201c565b1562000661578373ffffffffffffffffffffffffffffffffffffffff1663150b7a02620005146200070760201b60201c565b8786866040518563ffffffff1660e01b8152600401620005389493929190620009bd565b602060405180830381600087803b1580156200055357600080fd5b505af19250505080156200058757506040513d601f19601f820116820180604052508101906200058491906200085f565b60015b62000610573d8060008114620005ba576040519150601f19603f3d011682016040523d82523d6000602084013e620005bf565b606091505b5060008151141562000608576040517f08c379a0000000000000000000000000000000000000000000000000000000008152600401620005ff9062000a11565b60405180910390fd5b805181602001fd5b63150b7a0260e01b7bffffffffffffffffffffffffffffffffffffffffffffffffffffffff1916817bffffffffffffffffffffffffffffffffffffffffffffffffffffffff19161491505062000666565b600190505b949350505050565b60008073ffffffffffffffffffffffffffffffffffffffff166002600084815260200190815260200160002060009054906101000a900473ffffffffffffffffffffffffffffffffffffffff1673ffffffffffffffffffffffffffffffffffffffff1614159050919050565b505050565b505050565b6000808273ffffffffffffffffffffffffffffffffffffffff163b119050919050565b600033905090565b8280546200071d9062000c00565b90600052602060002090601f0160209004810192826200074157600085556200078d565b82601f106200075c57805160ff19168380011785556200078d565b828001600101855582156200078d579182015b828111156200078c5782518255916020019190600101906200076f565b5b5090506200079c9190620007a0565b5090565b5b80821115620007bb576000816000905550600101620007a1565b5090565b6000620007d6620007d08462000aa0565b62000a77565b905082815260208101848484011115620007ef57600080fd5b620007fc84828562000bca565b509392505050565b600081519050620008158162000dab565b92915050565b600082601f8301126200082d57600080fd5b81516200083f848260208601620007bf565b91505092915050565b600081519050620008598162000dc5565b92915050565b6000602082840312156200087257600080fd5b6000620008828482850162000804565b91505092915050565b600080604083850312156200089f57600080fd5b600083015167ffffffffffffffff811115620008ba57600080fd5b620008c8858286016200081b565b9250506020620008db8582860162000848565b9150509250929050565b620008f08162000b60565b82525050565b6000620009038262000ad6565b6200090f818562000ae1565b93506200092181856020860162000bca565b6200092c8162000cf9565b840191505092915050565b60006200094660328362000af2565b9150620009538262000d0a565b604082019050919050565b60006200096d601c8362000af2565b91506200097a8262000d59565b602082019050919050565b60006200099460208362000af2565b9150620009a18262000d82565b602082019050919050565b620009b78162000bc0565b82525050565b6000608082019050620009d46000830187620008e5565b620009e36020830186620008e5565b620009f26040830185620009ac565b818103606083015262000a068184620008f6565b905095945050505050565b6000602082019050818103600083015262000a2c8162000937565b9050919050565b6000602082019050818103600083015262000a4e816200095e565b9050919050565b6000602082019050818103600083015262000a708162000985565b9050919050565b600062000a8362000a96565b905062000a91828262000c36565b919050565b6000604051905090565b600067ffffffffffffffff82111562000abe5762000abd62000cca565b5b62000ac98262000cf9565b9050602081019050919050565b600081519050919050565b600082825260208201905092915050565b600082825260208201905092915050565b600062000b108262000bc0565b915062000b1d8362000bc0565b9250827fffffffffffffffffffffffffffffffffffffffffffffffffffffffffffffffff0382111562000b555762000b5462000c6c565b5b828201905092915050565b600062000b6d8262000ba0565b9050919050565b60007fffffffff0000000000000000000000000000000000000000000000000000000082169050919050565b600073ffffffffffffffffffffffffffffffffffffffff82169050919050565b6000819050919050565b60005b8381101562000bea57808201518184015260208101905062000bcd565b8381111562000bfa576000848401525b50505050565b6000600282049050600182168062000c1957607f821691505b6020821081141562000c305762000c2f62000c9b565b5b50919050565b62000c418262000cf9565b810181811067ffffffffffffffff8211171562000c635762000c6262000cca565b5b80604052505050565b7f4e487b7100000000000000000000000000000000000000000000000000000000600052601160045260246000fd5b7f4e487b7100000000000000000000000000000000000000000000000000000000600052602260045260246000fd5b7f4e487b7100000000000000000000000000000000000000000000000000000000600052604160045260246000fd5b6000601f19601f8301169050919050565b7f4552433732313a207472616e7366657220746f206e6f6e20455243373231526560008201527f63656976657220696d706c656d656e7465720000000000000000000000000000602082015250565b7f4552433732313a20746f6b656e20616c7265616479206d696e74656400000000600082015250565b7f4552433732313a206d696e7420746f20746865207a65726f2061646472657373600082015250565b62000db68162000b74565b811462000dc257600080fd5b50565b62000dd08162000bc0565b811462000ddc57600080fd5b50565b61295e8062000def6000396000f3fe6080604052600436106100f35760003560e01c806370a082311161008a578063b88d4fde11610059578063b88d4fde1461032e578063c87b56dd14610357578063e985e9c514610394578063eb91d37e146103d1576100f3565b806370a082311461027157806395d89b41146102ae578063a18a186b146102d9578063a22cb46514610305576100f3565b806323b872dd116100c657806323b872dd146101c6578063243adbdd146101ef57806342842e0e1461020b5780636352211e14610234576100f3565b806301ffc9a7146100f857806306fdde0314610135578063081812fc14610160578063095ea7b31461019d575b600080fd5b34801561010457600080fd5b5061011f600480360381019061011a9190611b23565b6103fc565b60405161012c9190611ee9565b60405180910390f35b34801561014157600080fd5b5061014a6104de565b6040516101579190611f04565b60405180910390f35b34801561016c57600080fd5b5061018760048036038101906101829190611b75565b610570565b6040516101949190611e59565b60405180910390f35b3480156101a957600080fd5b506101c460048036038101906101bf9190611ae7565b6105f5565b005b3480156101d257600080fd5b506101ed60048036038101906101e891906119e1565b61070d565b005b61020960048036038101906102049190611b75565b61076d565b005b34801561021757600080fd5b50610232600480360381019061022d91906119e1565b6108fa565b005b34801561024057600080fd5b5061025b60048036038101906102569190611b75565b61091a565b6040516102689190611e59565b60405180910390f35b34801561027d57600080fd5b506102986004803603810190610293919061197c565b6109cc565b6040516102a591906120c6565b60405180910390f35b3480156102ba57600080fd5b506102c3610a84565b6040516102d09190611f04565b60405180910390f35b3480156102e557600080fd5b506102ee610b16565b6040516102fc929190611ec0565b60405180910390f35b34801561031157600080fd5b5061032c60048036038101906103279190611aab565b610b73565b005b34801561033a57600080fd5b5061035560048036038101906103509190611a30565b610b89565b005b34801561036357600080fd5b5061037e60048036038101906103799190611b75565b610beb565b60405161038b9190611f04565b60405180910390f35b3480156103a057600080fd5b506103bb60048036038101906103b691906119a5565b610c92565b6040516103c89190611ee9565b60405180910390f35b3480156103dd57600080fd5b506103e6610d26565b6040516103f391906120c6565b60405180910390f35b60007f80ac58cd000000000000000000000000000000000000000000000000000000007bffffffffffffffffffffffffffffffffffffffffffffffffffffffff1916827bffffffffffffffffffffffffffffffffffffffffffffffffffffffff191614806104c757507f5b5e139f000000000000000000000000000000000000000000000000000000007bffffffffffffffffffffffffffffffffffffffffffffffffffffffff1916827bffffffffffffffffffffffffffffffffffffffffffffffffffffffff1916145b806104d757506104d682610d53565b5b9050919050565b6060600080546104ed90612345565b80601f016020809104026020016040519081016040528092919081815260200182805461051990612345565b80156105665780601f1061053b57610100808354040283529160200191610566565b820191906000526020600020905b81548152906001019060200180831161054957829003601f168201915b5050505050905090565b600061057b82610dbd565b6105ba576040517f08c379a00000000000000000000000000000000000000000000000000000000081526004016105b190612046565b60405180910390fd5b6004600083815260200190815260200160002060009054906101000a900473ffffffffffffffffffffffffffffffffffffffff169050919050565b60006106008261091a565b90508073ffffffffffffffffffffffffffffffffffffffff168373ffffffffffffffffffffffffffffffffffffffff161415610671576040517f08c379a000000000000000000000000000000000000000000000000000000000815260040161066890612086565b60405180910390fd5b8073ffffffffffffffffffffffffffffffffffffffff16610690610e29565b73ffffffffffffffffffffffffffffffffffffffff1614806106bf57506106be816106b9610e29565b610c92565b5b6106fe576040517f08c379a00000000000000000000000000000000000000000000000000000000081526004016106f590611fe6565b60405180910390fd5b6107088383610e31565b505050565b61071e610718610e29565b82610eea565b61075d576040517f08c379a0000000000000000000000000000000000000000000000000000000008152600401610754906120a6565b60405180910390fd5b610768838383610fc8565b505050565b60095481146107b1576040517f08c379a00000000000000000000000000000000000000000000000000000000081526004016107a890611f26565b60405180910390fd5b6107c76107bc61122f565b33600060ff16610fc8565b6107fa60405180604001604052803373ffffffffffffffffffffffffffffffffffffffff1681526020014281525061126f565b60016008600082825461080d919061217a565b9250508190555060006009546064600954600a61082a9190612201565b61083491906121d0565b61083e919061217a565b9050600760009054906101000a900473ffffffffffffffffffffffffffffffffffffffff1673ffffffffffffffffffffffffffffffffffffffff166108fc6009548361088a919061225b565b9081150290604051600060405180830381858888f193505050501580156108b5573d6000803e3d6000fd5b50806009819055507f469e1a2e6533f4513f66fd16892e14795282a90308752c89d4f98fd53eead25933346040516108ee929190611ec0565b60405180910390a15050565b61091583838360405180602001604052806000815250610b89565b505050565b6000806002600084815260200190815260200160002060009054906101000a900473ffffffffffffffffffffffffffffffffffffffff169050600073ffffffffffffffffffffffffffffffffffffffff168173ffffffffffffffffffffffffffffffffffffffff1614156109c3576040517f08c379a00000000000000000000000000000000000000000000000000000000081526004016109ba90612026565b60405180910390fd5b80915050919050565b60008073ffffffffffffffffffffffffffffffffffffffff168273ffffffffffffffffffffffffffffffffffffffff161415610a3d576040517f08c379a0000000000000000000000000000000000000000000000000000000008152600401610a3490612006565b60405180910390fd5b600360008373ffffffffffffffffffffffffffffffffffffffff1673ffffffffffffffffffffffffffffffffffffffff168152602001908152602001600020549050919050565b606060018054610a9390612345565b80601f0160208091040260200160405190810160405280929190818152602001828054610abf90612345565b8015610b0c5780601f10610ae157610100808354040283529160200191610b0c565b820191906000526020600020905b815481529060010190602001808311610aef57829003601f168201915b5050505050905090565b600080600a6000600854815260200190815260200160002060000160009054906101000a900473ffffffffffffffffffffffffffffffffffffffff16600a6000600854815260200190815260200160002060010154915091509091565b610b85610b7e610e29565b8383611302565b5050565b610b9a610b94610e29565b83610eea565b610bd9576040517f08c379a0000000000000000000000000000000000000000000000000000000008152600401610bd0906120a6565b60405180910390fd5b610be58484848461146f565b50505050565b6060610bf682610dbd565b610c35576040517f08c379a0000000000000000000000000000000000000000000000000000000008152600401610c2c90612066565b60405180910390fd5b6000610c3f6114cb565b90506000815111610c5f5760405180602001604052806000815250610c8a565b80610c698461155d565b604051602001610c7a929190611e35565b6040516020818303038152906040525b915050919050565b6000600560008473ffffffffffffffffffffffffffffffffffffffff1673ffffffffffffffffffffffffffffffffffffffff16815260200190815260200160002060008373ffffffffffffffffffffffffffffffffffffffff1673ffffffffffffffffffffffffffffffffffffffff16815260200190815260200160002060009054906101000a900460ff16905092915050565b6000600954905090565b6000808273ffffffffffffffffffffffffffffffffffffffff163b119050919050565b60007f01ffc9a7000000000000000000000000000000000000000000000000000000007bffffffffffffffffffffffffffffffffffffffffffffffffffffffff1916827bffffffffffffffffffffffffffffffffffffffffffffffffffffffff1916149050919050565b60008073ffffffffffffffffffffffffffffffffffffffff166002600084815260200190815260200160002060009054906101000a900473ffffffffffffffffffffffffffffffffffffffff1673ffffffffffffffffffffffffffffffffffffffff1614159050919050565b600033905090565b816004600083815260200190815260200160002060006101000a81548173ffffffffffffffffffffffffffffffffffffffff021916908373ffffffffffffffffffffffffffffffffffffffff160217905550808273ffffffffffffffffffffffffffffffffffffffff16610ea48361091a565b73ffffffffffffffffffffffffffffffffffffffff167f8c5be1e5ebec7d5bd14f71427d1e84f3dd0314c0f7b2291e5b200ac8c7c3b92560405160405180910390a45050565b6000610ef582610dbd565b610f34576040517f08c379a0000000000000000000000000000000000000000000000000000000008152600401610f2b90611fc6565b60405180910390fd5b6000610f3f8361091a565b90508073ffffffffffffffffffffffffffffffffffffffff168473ffffffffffffffffffffffffffffffffffffffff161480610fae57508373ffffffffffffffffffffffffffffffffffffffff16610f9684610570565b73ffffffffffffffffffffffffffffffffffffffff16145b80610fbf5750610fbe8185610c92565b5b91505092915050565b8273ffffffffffffffffffffffffffffffffffffffff16610fe88261091a565b73ffffffffffffffffffffffffffffffffffffffff161461103e576040517f08c379a000000000000000000000000000000000000000000000000000000000815260040161103590611f66565b60405180910390fd5b600073ffffffffffffffffffffffffffffffffffffffff168273ffffffffffffffffffffffffffffffffffffffff1614156110ae576040517f08c379a00000000000000000000000000000000000000000000000000000000081526004016110a590611f86565b60405180910390fd5b6110b983838361170a565b6110c4600082610e31565b6001600360008573ffffffffffffffffffffffffffffffffffffffff1673ffffffffffffffffffffffffffffffffffffffff1681526020019081526020016000206000828254611114919061225b565b925050819055506001600360008473ffffffffffffffffffffffffffffffffffffffff1673ffffffffffffffffffffffffffffffffffffffff168152602001908152602001600020600082825461116b919061217a565b92505081905550816002600083815260200190815260200160002060006101000a81548173ffffffffffffffffffffffffffffffffffffffff021916908373ffffffffffffffffffffffffffffffffffffffff160217905550808273ffffffffffffffffffffffffffffffffffffffff168473ffffffffffffffffffffffffffffffffffffffff167fddf252ad1be2c89b69c2b068fc378daa952ba7f163c4a11628f55a4df523b3ef60405160405180910390a461122a83838361170f565b505050565b6000600a6000600854815260200190815260200160002060000160009054906101000a900473ffffffffffffffffffffffffffffffffffffffff16905090565b80600a60006001600854611283919061217a565b815260200190815260200160002060008201518160000160006101000a81548173ffffffffffffffffffffffffffffffffffffffff021916908373ffffffffffffffffffffffffffffffffffffffff160217905550602082015181600101559050506001600860008282546112f8919061217a565b9250508190555050565b8173ffffffffffffffffffffffffffffffffffffffff168373ffffffffffffffffffffffffffffffffffffffff161415611371576040517f08c379a000000000000000000000000000000000000000000000000000000000815260040161136890611fa6565b60405180910390fd5b80600560008573ffffffffffffffffffffffffffffffffffffffff1673ffffffffffffffffffffffffffffffffffffffff16815260200190815260200160002060008473ffffffffffffffffffffffffffffffffffffffff1673ffffffffffffffffffffffffffffffffffffffff16815260200190815260200160002060006101000a81548160ff0219169083151502179055508173ffffffffffffffffffffffffffffffffffffffff168373ffffffffffffffffffffffffffffffffffffffff167f17307eab39ab6107e8899845ad3d59bd9653f200f220920489ca2b5937696c31836040516114629190611ee9565b60405180910390a3505050565b61147a848484610fc8565b61148684848484611714565b6114c5576040517f08c379a00000000000000000000000000000000000000000000000000000000081526004016114bc90611f46565b60405180910390fd5b50505050565b6060600680546114da90612345565b80601f016020809104026020016040519081016040528092919081815260200182805461150690612345565b80156115535780601f1061152857610100808354040283529160200191611553565b820191906000526020600020905b81548152906001019060200180831161153657829003601f168201915b5050505050905090565b606060008214156115a5576040518060400160405280600181526020017f30000000000000000000000000000000000000000000000000000000000000008152509050611705565b600082905060005b600082146115d75780806115c0906123a8565b915050600a826115d091906121d0565b91506115ad565b60008167ffffffffffffffff811115611619577f4e487b7100000000000000000000000000000000000000000000000000000000600052604160045260246000fd5b6040519080825280601f01601f19166020018201604052801561164b5781602001600182028036833780820191505090505b5090505b600085146116fe57600182611664919061225b565b9150600a8561167391906123f1565b603061167f919061217a565b60f81b8183815181106116bb577f4e487b7100000000000000000000000000000000000000000000000000000000600052603260045260246000fd5b60200101907effffffffffffffffffffffffffffffffffffffffffffffffffffffffffffff1916908160001a905350600a856116f791906121d0565b945061164f565b8093505050505b919050565b505050565b505050565b60006117358473ffffffffffffffffffffffffffffffffffffffff16610d30565b1561189e578373ffffffffffffffffffffffffffffffffffffffff1663150b7a0261175e610e29565b8786866040518563ffffffff1660e01b81526004016117809493929190611e74565b602060405180830381600087803b15801561179a57600080fd5b505af19250505080156117cb57506040513d601f19601f820116820180604052508101906117c89190611b4c565b60015b61184e573d80600081146117fb576040519150601f19603f3d011682016040523d82523d6000602084013e611800565b606091505b50600081511415611846576040517f08c379a000000000000000000000000000000000000000000000000000000000815260040161183d90611f46565b60405180910390fd5b805181602001fd5b63150b7a0260e01b7bffffffffffffffffffffffffffffffffffffffffffffffffffffffff1916817bffffffffffffffffffffffffffffffffffffffffffffffffffffffff1916149150506118a3565b600190505b949350505050565b60006118be6118b984612106565b6120e1565b9050828152602081018484840111156118d657600080fd5b6118e1848285612303565b509392505050565b6000813590506118f8816128cc565b92915050565b60008135905061190d816128e3565b92915050565b600081359050611922816128fa565b92915050565b600081519050611937816128fa565b92915050565b600082601f83011261194e57600080fd5b813561195e8482602086016118ab565b91505092915050565b60008135905061197681612911565b92915050565b60006020828403121561198e57600080fd5b600061199c848285016118e9565b91505092915050565b600080604083850312156119b857600080fd5b60006119c6858286016118e9565b92505060206119d7858286016118e9565b9150509250929050565b6000806000606084860312156119f657600080fd5b6000611a04868287016118e9565b9350506020611a15868287016118e9565b9250506040611a2686828701611967565b9150509250925092565b60008060008060808587031215611a4657600080fd5b6000611a54878288016118e9565b9450506020611a65878288016118e9565b9350506040611a7687828801611967565b925050606085013567ffffffffffffffff811115611a9357600080fd5b611a9f8782880161193d565b91505092959194509250565b60008060408385031215611abe57600080fd5b6000611acc858286016118e9565b9250506020611add858286016118fe565b9150509250929050565b60008060408385031215611afa57600080fd5b6000611b08858286016118e9565b9250506020611b1985828601611967565b9150509250929050565b600060208284031215611b3557600080fd5b6000611b4384828501611913565b91505092915050565b600060208284031215611b5e57600080fd5b6000611b6c84828501611928565b91505092915050565b600060208284031215611b8757600080fd5b6000611b9584828501611967565b91505092915050565b611ba78161228f565b82525050565b611bb6816122a1565b82525050565b6000611bc782612137565b611bd1818561214d565b9350611be1818560208601612312565b611bea816124de565b840191505092915050565b6000611c0082612142565b611c0a818561215e565b9350611c1a818560208601612312565b611c23816124de565b840191505092915050565b6000611c3982612142565b611c43818561216f565b9350611c53818560208601612312565b80840191505092915050565b6000611c6c602b8361215e565b9150611c77826124ef565b604082019050919050565b6000611c8f60328361215e565b9150611c9a8261253e565b604082019050919050565b6000611cb260258361215e565b9150611cbd8261258d565b604082019050919050565b6000611cd560248361215e565b9150611ce0826125dc565b604082019050919050565b6000611cf860198361215e565b9150611d038261262b565b602082019050919050565b6000611d1b602c8361215e565b9150611d2682612654565b604082019050919050565b6000611d3e60388361215e565b9150611d49826126a3565b604082019050919050565b6000611d61602a8361215e565b9150611d6c826126f2565b604082019050919050565b6000611d8460298361215e565b9150611d8f82612741565b604082019050919050565b6000611da7602c8361215e565b9150611db282612790565b604082019050919050565b6000611dca602f8361215e565b9150611dd5826127df565b604082019050919050565b6000611ded60218361215e565b9150611df88261282e565b604082019050919050565b6000611e1060318361215e565b9150611e1b8261287d565b604082019050919050565b611e2f816122f9565b82525050565b6000611e418285611c2e565b9150611e4d8284611c2e565b91508190509392505050565b6000602082019050611e6e6000830184611b9e565b92915050565b6000608082019050611e896000830187611b9e565b611e966020830186611b9e565b611ea36040830185611e26565b8181036060830152611eb58184611bbc565b905095945050505050565b6000604082019050611ed56000830185611b9e565b611ee26020830184611e26565b9392505050565b6000602082019050611efe6000830184611bad565b92915050565b60006020820190508181036000830152611f1e8184611bf5565b905092915050565b60006020820190508181036000830152611f3f81611c5f565b9050919050565b60006020820190508181036000830152611f5f81611c82565b9050919050565b60006020820190508181036000830152611f7f81611ca5565b9050919050565b60006020820190508181036000830152611f9f81611cc8565b9050919050565b60006020820190508181036000830152611fbf81611ceb565b9050919050565b60006020820190508181036000830152611fdf81611d0e565b9050919050565b60006020820190508181036000830152611fff81611d31565b9050919050565b6000602082019050818103600083015261201f81611d54565b9050919050565b6000602082019050818103600083015261203f81611d77565b9050919050565b6000602082019050818103600083015261205f81611d9a565b9050919050565b6000602082019050818103600083015261207f81611dbd565b9050919050565b6000602082019050818103600083015261209f81611de0565b9050919050565b600060208201905081810360008301526120bf81611e03565b9050919050565b60006020820190506120db6000830184611e26565b92915050565b60006120eb6120fc565b90506120f78282612377565b919050565b6000604051905090565b600067ffffffffffffffff821115612121576121206124af565b5b61212a826124de565b9050602081019050919050565b600081519050919050565b600081519050919050565b600082825260208201905092915050565b600082825260208201905092915050565b600081905092915050565b6000612185826122f9565b9150612190836122f9565b9250827fffffffffffffffffffffffffffffffffffffffffffffffffffffffffffffffff038211156121c5576121c4612422565b5b828201905092915050565b60006121db826122f9565b91506121e6836122f9565b9250826121f6576121f5612451565b5b828204905092915050565b600061220c826122f9565b9150612217836122f9565b9250817fffffffffffffffffffffffffffffffffffffffffffffffffffffffffffffffff04831182151516156122505761224f612422565b5b828202905092915050565b6000612266826122f9565b9150612271836122f9565b92508282101561228457612283612422565b5b828203905092915050565b600061229a826122d9565b9050919050565b60008115159050919050565b60007fffffffff0000000000000000000000000000000000000000000000000000000082169050919050565b600073ffffffffffffffffffffffffffffffffffffffff82169050919050565b6000819050919050565b82818337600083830152505050565b60005b83811015612330578082015181840152602081019050612315565b8381111561233f576000848401525b50505050565b6000600282049050600182168061235d57607f821691505b6020821081141561237157612370612480565b5b50919050565b612380826124de565b810181811067ffffffffffffffff8211171561239f5761239e6124af565b5b80604052505050565b60006123b3826122f9565b91507fffffffffffffffffffffffffffffffffffffffffffffffffffffffffffffffff8214156123e6576123e5612422565b5b600182019050919050565b60006123fc826122f9565b9150612407836122f9565b92508261241757612416612451565b5b828206905092915050565b7f4e487b7100000000000000000000000000000000000000000000000000000000600052601160045260246000fd5b7f4e487b7100000000000000000000000000000000000000000000000000000000600052601260045260246000fd5b7f4e487b7100000000000000000000000000000000000000000000000000000000600052602260045260246000fd5b7f4e487b7100000000000000000000000000000000000000000000000000000000600052604160045260246000fd5b6000601f19601f8301169050919050565b7f45746865722073656e742073686f756c6420626520657175616c20746f20637560008201527f7272656e74205072696365000000000000000000000000000000000000000000602082015250565b7f4552433732313a207472616e7366657220746f206e6f6e20455243373231526560008201527f63656976657220696d706c656d656e7465720000000000000000000000000000602082015250565b7f4552433732313a207472616e736665722066726f6d20696e636f72726563742060008201527f6f776e6572000000000000000000000000000000000000000000000000000000602082015250565b7f4552433732313a207472616e7366657220746f20746865207a65726f2061646460008201527f7265737300000000000000000000000000000000000000000000000000000000602082015250565b7f4552433732313a20617070726f766520746f2063616c6c657200000000000000600082015250565b7f4552433732313a206f70657261746f7220717565727920666f72206e6f6e657860008201527f697374656e7420746f6b656e0000000000000000000000000000000000000000602082015250565b7f4552433732313a20617070726f76652063616c6c6572206973206e6f74206f7760008201527f6e6572206e6f7220617070726f76656420666f7220616c6c0000000000000000602082015250565b7f4552433732313a2062616c616e636520717565727920666f7220746865207a6560008201527f726f206164647265737300000000000000000000000000000000000000000000602082015250565b7f4552433732313a206f776e657220717565727920666f72206e6f6e657869737460008201527f656e7420746f6b656e0000000000000000000000000000000000000000000000602082015250565b7f4552433732313a20617070726f76656420717565727920666f72206e6f6e657860008201527f697374656e7420746f6b656e0000000000000000000000000000000000000000602082015250565b7f4552433732314d657461646174613a2055524920717565727920666f72206e6f60008201527f6e6578697374656e7420746f6b656e0000000000000000000000000000000000602082015250565b7f4552433732313a20617070726f76616c20746f2063757272656e74206f776e6560008201527f7200000000000000000000000000000000000000000000000000000000000000602082015250565b7f4552433732313a207472616e736665722063616c6c6572206973206e6f74206f60008201527f776e6572206e6f7220617070726f766564000000000000000000000000000000602082015250565b6128d58161228f565b81146128e057600080fd5b50565b6128ec816122a1565b81146128f757600080fd5b50565b612903816122ad565b811461290e57600080fd5b50565b61291a816122f9565b811461292557600080fd5b5056fea2646970667358221220ffd093eedcd374c3a8bb8525a987482d3a1947541ed6880cd7e58744818314af64736f6c63430008010033",
  "linkReferences": {},
  "deployedLinkReferences": {}
}