{
  "_format": "hh-sol-artifact-1",
  "contractName": "Topi",
  "sourceName": "contracts/Topi.sol",
  "abi": [
    {
      "inputs": [
        {
          "internalType": "string",
          "name": "_baseUri",
          "type": "string"
        },
        {
          "internalType": "uint256",
          "name": "_tokenId",
          "type": "uint256"
        }
      ],
      "stateMutability": "payable",
      "type": "constructor"
    },
    {
      "anonymous": false,
      "inputs": [
        {
          "indexed": true,
          "internalType": "address",
          "name": "owner",
          "type": "address"
        },
        {
          "indexed": true,
          "internalType": "address",
          "name": "approved",
          "type": "address"
        },
        {
          "indexed": true,
          "internalType": "uint256",
          "name": "tokenId",
          "type": "uint256"
        }
      ],
      "name": "Approval",
      "type": "event"
    },
    {
      "anonymous": false,
      "inputs": [
        {
          "indexed": true,
          "internalType": "address",
          "name": "owner",
          "type": "address"
        },
        {
          "indexed": true,
          "internalType": "address",
          "name": "operator",
          "type": "address"
        },
        {
          "indexed": false,
          "internalType": "bool",
          "name": "approved",
          "type": "bool"
        }
      ],
      "name": "ApprovalForAll",
      "type": "event"
    },
    {
      "anonymous": false,
      "inputs": [
        {
          "indexed": true,
          "internalType": "address",
          "name": "from",
          "type": "address"
        },
        {
          "indexed": true,
          "internalType": "address",
          "name": "to",
          "type": "address"
        },
        {
          "indexed": true,
          "internalType": "uint256",
          "name": "tokenId",
          "type": "uint256"
        }
      ],
      "name": "Transfer",
      "type": "event"
    },
    {
      "anonymous": false,
      "inputs": [
        {
          "indexed": false,
          "internalType": "address",
          "name": "",
          "type": "address"
        },
        {
          "indexed": false,
          "internalType": "uint256",
          "name": "",
          "type": "uint256"
        }
      ],
      "name": "nftBought",
      "type": "event"
    },
    {
      "inputs": [
        {
          "internalType": "address",
          "name": "to",
          "type": "address"
        },
        {
          "internalType": "uint256",
          "name": "tokenId",
          "type": "uint256"
        }
      ],
      "name": "approve",
      "outputs": [],
      "stateMutability": "nonpayable",
      "type": "function"
    },
    {
      "inputs": [
        {
          "internalType": "address",
          "name": "owner",
          "type": "address"
        }
      ],
      "name": "balanceOf",
      "outputs": [
        {
          "internalType": "uint256",
          "name": "",
          "type": "uint256"
        }
      ],
      "stateMutability": "view",
      "type": "function"
    },
    {
      "inputs": [],
      "name": "buyNft",
      "outputs": [],
      "stateMutability": "payable",
      "type": "function"
    },
    {
      "inputs": [],
      "name": "getAllOwners",
      "outputs": [
        {
          "components": [
            {
              "internalType": "address",
              "name": "addressOfOwner",
              "type": "address"
            },
            {
              "internalType": "uint256",
              "name": "timeStamp",
              "type": "uint256"
            }
          ],
          "internalType": "struct Topi.ownerDetail[]",
          "name": "",
          "type": "tuple[]"
        }
      ],
      "stateMutability": "view",
      "type": "function"
    },
    {
      "inputs": [
        {
          "internalType": "uint256",
          "name": "tokenId",
          "type": "uint256"
        }
      ],
      "name": "getApproved",
      "outputs": [
        {
          "internalType": "address",
          "name": "",
          "type": "address"
        }
      ],
      "stateMutability": "view",
      "type": "function"
    },
    {
      "inputs": [],
      "name": "getCurrentOwner",
      "outputs": [
        {
          "internalType": "address",
          "name": "",
          "type": "address"
        },
        {
          "internalType": "uint256",
          "name": "",
          "type": "uint256"
        }
      ],
      "stateMutability": "view",
      "type": "function"
    },
    {
      "inputs": [],
      "name": "getCurrentPrice",
      "outputs": [
        {
          "internalType": "uint256",
          "name": "",
          "type": "uint256"
        }
      ],
      "stateMutability": "view",
      "type": "function"
    },
    {
      "inputs": [
        {
          "internalType": "address",
          "name": "owner",
          "type": "address"
        },
        {
          "internalType": "address",
          "name": "operator",
          "type": "address"
        }
      ],
      "name": "isApprovedForAll",
      "outputs": [
        {
          "internalType": "bool",
          "name": "",
          "type": "bool"
        }
      ],
      "stateMutability": "view",
      "type": "function"
    },
    {
      "inputs": [],
      "name": "name",
      "outputs": [
        {
          "internalType": "string",
          "name": "",
          "type": "string"
        }
      ],
      "stateMutability": "view",
      "type": "function"
    },
    {
      "inputs": [
        {
          "internalType": "uint256",
          "name": "tokenId",
          "type": "uint256"
        }
      ],
      "name": "ownerOf",
      "outputs": [
        {
          "internalType": "address",
          "name": "",
          "type": "address"
        }
      ],
      "stateMutability": "view",
      "type": "function"
    },
    {
      "inputs": [
        {
          "internalType": "address",
          "name": "from",
          "type": "address"
        },
        {
          "internalType": "address",
          "name": "to",
          "type": "address"
        },
        {
          "internalType": "uint256",
          "name": "tokenId",
          "type": "uint256"
        }
      ],
      "name": "safeTransferFrom",
      "outputs": [],
      "stateMutability": "nonpayable",
      "type": "function"
    },
    {
      "inputs": [
        {
          "internalType": "address",
          "name": "from",
          "type": "address"
        },
        {
          "internalType": "address",
          "name": "to",
          "type": "address"
        },
        {
          "internalType": "uint256",
          "name": "tokenId",
          "type": "uint256"
        },
        {
          "internalType": "bytes",
          "name": "_data",
          "type": "bytes"
        }
      ],
      "name": "safeTransferFrom",
      "outputs": [],
      "stateMutability": "nonpayable",
      "type": "function"
    },
    {
      "inputs": [
        {
          "internalType": "address",
          "name": "operator",
          "type": "address"
        },
        {
          "internalType": "bool",
          "name": "approved",
          "type": "bool"
        }
      ],
      "name": "setApprovalForAll",
      "outputs": [],
      "stateMutability": "nonpayable",
      "type": "function"
    },
    {
      "inputs": [
        {
          "internalType": "bytes4",
          "name": "interfaceId",
          "type": "bytes4"
        }
      ],
      "name": "supportsInterface",
      "outputs": [
        {
          "internalType": "bool",
          "name": "",
          "type": "bool"
        }
      ],
      "stateMutability": "view",
      "type": "function"
    },
    {
      "inputs": [],
      "name": "symbol",
      "outputs": [
        {
          "internalType": "string",
          "name": "",
          "type": "string"
        }
      ],
      "stateMutability": "view",
      "type": "function"
    },
    {
      "inputs": [
        {
          "internalType": "uint256",
          "name": "tokenId",
          "type": "uint256"
        }
      ],
      "name": "tokenURI",
      "outputs": [
        {
          "internalType": "string",
          "name": "",
          "type": "string"
        }
      ],
      "stateMutability": "view",
      "type": "function"
    },
    {
      "inputs": [
        {
          "internalType": "address",
          "name": "from",
          "type": "address"
        },
        {
          "internalType": "address",
          "name": "to",
          "type": "address"
        },
        {
          "internalType": "uint256",
          "name": "tokenId",
          "type": "uint256"
        }
      ],
      "name": "transferFrom",
      "outputs": [],
      "stateMutability": "nonpayable",
      "type": "function"
    }
  ],
  "bytecode": "0x608060405260405162003aa838038062003aa883398181016040528101906200002991906200094b565b6040518060400160405280600481526020017f546f7069000000000000000000000000000000000000000000000000000000008152506040518060400160405280600481526020017f544f5049000000000000000000000000000000000000000000000000000000008152508160009080519060200190620000ad929190620007cf565b508060019080519060200190620000c6929190620007cf565b50505033600760006101000a81548173ffffffffffffffffffffffffffffffffffffffff021916908373ffffffffffffffffffffffffffffffffffffffff160217905550816006908051906020019062000122929190620007cf565b50620001353382620001d060201b60201c565b600060088190555033600a60006101000a81548173ffffffffffffffffffffffffffffffffffffffff021916908373ffffffffffffffffffffffffffffffffffffffff160217905550670de0b6b3a7640000600981905550620001c860405180604001604052803373ffffffffffffffffffffffffffffffffffffffff16815260200142815250620001f660201b60201c565b505062000e9f565b620001f28282604051806020016040528060008152506200030c60201b60201c565b5050565b80600b600060016008546200020c919062000bc3565b815260200190815260200160002060008201518160000160006101000a81548173ffffffffffffffffffffffffffffffffffffffff021916908373ffffffffffffffffffffffffffffffffffffffff16021790555060208201518160010155905050600c81908060018154018082558091505060019003906000526020600020906002020160009091909190915060008201518160000160006101000a81548173ffffffffffffffffffffffffffffffffffffffff021916908373ffffffffffffffffffffffffffffffffffffffff16021790555060208201518160010155505060016008600082825462000302919062000bc3565b9250508190555050565b6200031e83836200037a60201b60201c565b6200033360008484846200057460201b60201c565b62000375576040517f08c379a00000000000000000000000000000000000000000000000000000000081526004016200036c9062000ad1565b60405180910390fd5b505050565b600073ffffffffffffffffffffffffffffffffffffffff168273ffffffffffffffffffffffffffffffffffffffff161415620003ed576040517f08c379a0000000000000000000000000000000000000000000000000000000008152600401620003e49062000b15565b60405180910390fd5b620003fe816200072e60201b60201c565b1562000441576040517f08c379a0000000000000000000000000000000000000000000000000000000008152600401620004389062000af3565b60405180910390fd5b62000455600083836200079a60201b60201c565b6001600360008473ffffffffffffffffffffffffffffffffffffffff1673ffffffffffffffffffffffffffffffffffffffff1681526020019081526020016000206000828254620004a7919062000bc3565b92505081905550816002600083815260200190815260200160002060006101000a81548173ffffffffffffffffffffffffffffffffffffffff021916908373ffffffffffffffffffffffffffffffffffffffff160217905550808273ffffffffffffffffffffffffffffffffffffffff16600073ffffffffffffffffffffffffffffffffffffffff167fddf252ad1be2c89b69c2b068fc378daa952ba7f163c4a11628f55a4df523b3ef60405160405180910390a462000570600083836200079f60201b60201c565b5050565b6000620005a28473ffffffffffffffffffffffffffffffffffffffff16620007a460201b62000e6e1760201c565b1562000721578373ffffffffffffffffffffffffffffffffffffffff1663150b7a02620005d4620007c760201b60201c565b8786866040518563ffffffff1660e01b8152600401620005f8949392919062000a7d565b602060405180830381600087803b1580156200061357600080fd5b505af19250505080156200064757506040513d601f19601f820116820180604052508101906200064491906200091f565b60015b620006d0573d80600081146200067a576040519150601f19603f3d011682016040523d82523d6000602084013e6200067f565b606091505b50600081511415620006c8576040517f08c379a0000000000000000000000000000000000000000000000000000000008152600401620006bf9062000ad1565b60405180910390fd5b805181602001fd5b63150b7a0260e01b7bffffffffffffffffffffffffffffffffffffffffffffffffffffffff1916817bffffffffffffffffffffffffffffffffffffffffffffffffffffffff19161491505062000726565b600190505b949350505050565b60008073ffffffffffffffffffffffffffffffffffffffff166002600084815260200190815260200160002060009054906101000a900473ffffffffffffffffffffffffffffffffffffffff1673ffffffffffffffffffffffffffffffffffffffff1614159050919050565b505050565b505050565b6000808273ffffffffffffffffffffffffffffffffffffffff163b119050919050565b600033905090565b828054620007dd9062000cc0565b90600052602060002090601f0160209004810192826200080157600085556200084d565b82601f106200081c57805160ff19168380011785556200084d565b828001600101855582156200084d579182015b828111156200084c5782518255916020019190600101906200082f565b5b5090506200085c919062000860565b5090565b5b808211156200087b57600081600090555060010162000861565b5090565b600062000896620008908462000b60565b62000b37565b905082815260208101848484011115620008af57600080fd5b620008bc84828562000c8a565b509392505050565b600081519050620008d58162000e6b565b92915050565b600082601f830112620008ed57600080fd5b8151620008ff8482602086016200087f565b91505092915050565b600081519050620009198162000e85565b92915050565b6000602082840312156200093257600080fd5b60006200094284828501620008c4565b91505092915050565b600080604083850312156200095f57600080fd5b600083015167ffffffffffffffff8111156200097a57600080fd5b6200098885828601620008db565b92505060206200099b8582860162000908565b9150509250929050565b620009b08162000c20565b82525050565b6000620009c38262000b96565b620009cf818562000ba1565b9350620009e181856020860162000c8a565b620009ec8162000db9565b840191505092915050565b600062000a0660328362000bb2565b915062000a138262000dca565b604082019050919050565b600062000a2d601c8362000bb2565b915062000a3a8262000e19565b602082019050919050565b600062000a5460208362000bb2565b915062000a618262000e42565b602082019050919050565b62000a778162000c80565b82525050565b600060808201905062000a946000830187620009a5565b62000aa36020830186620009a5565b62000ab2604083018562000a6c565b818103606083015262000ac68184620009b6565b905095945050505050565b6000602082019050818103600083015262000aec81620009f7565b9050919050565b6000602082019050818103600083015262000b0e8162000a1e565b9050919050565b6000602082019050818103600083015262000b308162000a45565b9050919050565b600062000b4362000b56565b905062000b51828262000cf6565b919050565b6000604051905090565b600067ffffffffffffffff82111562000b7e5762000b7d62000d8a565b5b62000b898262000db9565b9050602081019050919050565b600081519050919050565b600082825260208201905092915050565b600082825260208201905092915050565b600062000bd08262000c80565b915062000bdd8362000c80565b9250827fffffffffffffffffffffffffffffffffffffffffffffffffffffffffffffffff0382111562000c155762000c1462000d2c565b5b828201905092915050565b600062000c2d8262000c60565b9050919050565b60007fffffffff0000000000000000000000000000000000000000000000000000000082169050919050565b600073ffffffffffffffffffffffffffffffffffffffff82169050919050565b6000819050919050565b60005b8381101562000caa57808201518184015260208101905062000c8d565b8381111562000cba576000848401525b50505050565b6000600282049050600182168062000cd957607f821691505b6020821081141562000cf05762000cef62000d5b565b5b50919050565b62000d018262000db9565b810181811067ffffffffffffffff8211171562000d235762000d2262000d8a565b5b80604052505050565b7f4e487b7100000000000000000000000000000000000000000000000000000000600052601160045260246000fd5b7f4e487b7100000000000000000000000000000000000000000000000000000000600052602260045260246000fd5b7f4e487b7100000000000000000000000000000000000000000000000000000000600052604160045260246000fd5b6000601f19601f8301169050919050565b7f4552433732313a207472616e7366657220746f206e6f6e20455243373231526560008201527f63656976657220696d706c656d656e7465720000000000000000000000000000602082015250565b7f4552433732313a20746f6b656e20616c7265616479206d696e74656400000000600082015250565b7f4552433732313a206d696e7420746f20746865207a65726f2061646472657373600082015250565b62000e768162000c34565b811462000e8257600080fd5b50565b62000e908162000c80565b811462000e9c57600080fd5b50565b612bf98062000eaf6000396000f3fe6080604052600436106100fe5760003560e01c806370a0823111610095578063b88d4fde11610064578063b88d4fde14610348578063c87b56dd14610371578063e69257c2146103ae578063e985e9c5146103b8578063eb91d37e146103f5576100fe565b806370a082311461028b57806395d89b41146102c8578063a18a186b146102f3578063a22cb4651461031f576100fe565b806316c12746116100d157806316c12746146101d157806323b872dd146101fc57806342842e0e146102255780636352211e1461024e576100fe565b806301ffc9a71461010357806306fdde0314610140578063081812fc1461016b578063095ea7b3146101a8575b600080fd5b34801561010f57600080fd5b5061012a60048036038101906101259190611ca0565b610420565b604051610137919061214b565b60405180910390f35b34801561014c57600080fd5b50610155610502565b6040516101629190612166565b60405180910390f35b34801561017757600080fd5b50610192600480360381019061018d9190611cf2565b610594565b60405161019f9190612099565b60405180910390f35b3480156101b457600080fd5b506101cf60048036038101906101ca9190611c64565b610619565b005b3480156101dd57600080fd5b506101e6610731565b6040516101f39190612129565b60405180910390f35b34801561020857600080fd5b50610223600480360381019061021e9190611b5e565b6107f0565b005b34801561023157600080fd5b5061024c60048036038101906102479190611b5e565b610850565b005b34801561025a57600080fd5b5061027560048036038101906102709190611cf2565b610870565b6040516102829190612099565b60405180910390f35b34801561029757600080fd5b506102b260048036038101906102ad9190611af9565b610922565b6040516102bf9190612328565b60405180910390f35b3480156102d457600080fd5b506102dd6109da565b6040516102ea9190612166565b60405180910390f35b3480156102ff57600080fd5b50610308610a6c565b604051610316929190612100565b60405180910390f35b34801561032b57600080fd5b5061034660048036038101906103419190611c28565b610ac9565b005b34801561035457600080fd5b5061036f600480360381019061036a9190611bad565b610adf565b005b34801561037d57600080fd5b5061039860048036038101906103939190611cf2565b610b41565b6040516103a59190612166565b60405180910390f35b6103b6610be8565b005b3480156103c457600080fd5b506103df60048036038101906103da9190611b22565b610dd0565b6040516103ec919061214b565b60405180910390f35b34801561040157600080fd5b5061040a610e64565b6040516104179190612328565b60405180910390f35b60007f80ac58cd000000000000000000000000000000000000000000000000000000007bffffffffffffffffffffffffffffffffffffffffffffffffffffffff1916827bffffffffffffffffffffffffffffffffffffffffffffffffffffffff191614806104eb57507f5b5e139f000000000000000000000000000000000000000000000000000000007bffffffffffffffffffffffffffffffffffffffffffffffffffffffff1916827bffffffffffffffffffffffffffffffffffffffffffffffffffffffff1916145b806104fb57506104fa82610e91565b5b9050919050565b606060008054610511906125e0565b80601f016020809104026020016040519081016040528092919081815260200182805461053d906125e0565b801561058a5780601f1061055f5761010080835404028352916020019161058a565b820191906000526020600020905b81548152906001019060200180831161056d57829003601f168201915b5050505050905090565b600061059f82610efb565b6105de576040517f08c379a00000000000000000000000000000000000000000000000000000000081526004016105d5906122a8565b60405180910390fd5b6004600083815260200190815260200160002060009054906101000a900473ffffffffffffffffffffffffffffffffffffffff169050919050565b600061062482610870565b90508073ffffffffffffffffffffffffffffffffffffffff168373ffffffffffffffffffffffffffffffffffffffff161415610695576040517f08c379a000000000000000000000000000000000000000000000000000000000815260040161068c906122e8565b60405180910390fd5b8073ffffffffffffffffffffffffffffffffffffffff166106b4610f67565b73ffffffffffffffffffffffffffffffffffffffff1614806106e357506106e2816106dd610f67565b610dd0565b5b610722576040517f08c379a000000000000000000000000000000000000000000000000000000000815260040161071990612248565b60405180910390fd5b61072c8383610f6f565b505050565b6060600c805480602002602001604051908101604052809291908181526020016000905b828210156107e757838290600052602060002090600202016040518060400160405290816000820160009054906101000a900473ffffffffffffffffffffffffffffffffffffffff1673ffffffffffffffffffffffffffffffffffffffff1673ffffffffffffffffffffffffffffffffffffffff16815260200160018201548152505081526020019060010190610755565b50505050905090565b6108016107fb610f67565b82611028565b610840576040517f08c379a000000000000000000000000000000000000000000000000000000000815260040161083790612308565b60405180910390fd5b61084b838383611106565b505050565b61086b83838360405180602001604052806000815250610adf565b505050565b6000806002600084815260200190815260200160002060009054906101000a900473ffffffffffffffffffffffffffffffffffffffff169050600073ffffffffffffffffffffffffffffffffffffffff168173ffffffffffffffffffffffffffffffffffffffff161415610919576040517f08c379a000000000000000000000000000000000000000000000000000000000815260040161091090612288565b60405180910390fd5b80915050919050565b60008073ffffffffffffffffffffffffffffffffffffffff168273ffffffffffffffffffffffffffffffffffffffff161415610993576040517f08c379a000000000000000000000000000000000000000000000000000000000815260040161098a90612268565b60405180910390fd5b600360008373ffffffffffffffffffffffffffffffffffffffff1673ffffffffffffffffffffffffffffffffffffffff168152602001908152602001600020549050919050565b6060600180546109e9906125e0565b80601f0160208091040260200160405190810160405280929190818152602001828054610a15906125e0565b8015610a625780601f10610a3757610100808354040283529160200191610a62565b820191906000526020600020905b815481529060010190602001808311610a4557829003601f168201915b5050505050905090565b600080600b6000600854815260200190815260200160002060000160009054906101000a900473ffffffffffffffffffffffffffffffffffffffff16600b6000600854815260200190815260200160002060010154915091509091565b610adb610ad4610f67565b838361136d565b5050565b610af0610aea610f67565b83611028565b610b2f576040517f08c379a0000000000000000000000000000000000000000000000000000000008152600401610b2690612308565b60405180910390fd5b610b3b848484846114da565b50505050565b6060610b4c82610efb565b610b8b576040517f08c379a0000000000000000000000000000000000000000000000000000000008152600401610b82906122c8565b60405180910390fd5b6000610b95611536565b90506000815111610bb55760405180602001604052806000815250610be0565b80610bbf846115c8565b604051602001610bd0929190612075565b6040516020818303038152906040525b915050919050565b6009543414610c2c576040517f08c379a0000000000000000000000000000000000000000000000000000000008152600401610c2390612188565b60405180910390fd5b610c5d600a60009054906101000a900473ffffffffffffffffffffffffffffffffffffffff1633600060ff16611106565b610c9060405180604001604052803373ffffffffffffffffffffffffffffffffffffffff16815260200142815250611775565b33600a60006101000a81548173ffffffffffffffffffffffffffffffffffffffff021916908373ffffffffffffffffffffffffffffffffffffffff160217905550600160086000828254610ce49190612415565b9250508190555060006009546064600954600a610d01919061249c565b610d0b919061246b565b610d159190612415565b9050600760009054906101000a900473ffffffffffffffffffffffffffffffffffffffff1673ffffffffffffffffffffffffffffffffffffffff166108fc60095483610d6191906124f6565b9081150290604051600060405180830381858888f19350505050158015610d8c573d6000803e3d6000fd5b50806009819055507f469e1a2e6533f4513f66fd16892e14795282a90308752c89d4f98fd53eead2593334604051610dc5929190612100565b60405180910390a150565b6000600560008473ffffffffffffffffffffffffffffffffffffffff1673ffffffffffffffffffffffffffffffffffffffff16815260200190815260200160002060008373ffffffffffffffffffffffffffffffffffffffff1673ffffffffffffffffffffffffffffffffffffffff16815260200190815260200160002060009054906101000a900460ff16905092915050565b6000600954905090565b6000808273ffffffffffffffffffffffffffffffffffffffff163b119050919050565b60007f01ffc9a7000000000000000000000000000000000000000000000000000000007bffffffffffffffffffffffffffffffffffffffffffffffffffffffff1916827bffffffffffffffffffffffffffffffffffffffffffffffffffffffff1916149050919050565b60008073ffffffffffffffffffffffffffffffffffffffff166002600084815260200190815260200160002060009054906101000a900473ffffffffffffffffffffffffffffffffffffffff1673ffffffffffffffffffffffffffffffffffffffff1614159050919050565b600033905090565b816004600083815260200190815260200160002060006101000a81548173ffffffffffffffffffffffffffffffffffffffff021916908373ffffffffffffffffffffffffffffffffffffffff160217905550808273ffffffffffffffffffffffffffffffffffffffff16610fe283610870565b73ffffffffffffffffffffffffffffffffffffffff167f8c5be1e5ebec7d5bd14f71427d1e84f3dd0314c0f7b2291e5b200ac8c7c3b92560405160405180910390a45050565b600061103382610efb565b611072576040517f08c379a000000000000000000000000000000000000000000000000000000000815260040161106990612228565b60405180910390fd5b600061107d83610870565b90508073ffffffffffffffffffffffffffffffffffffffff168473ffffffffffffffffffffffffffffffffffffffff1614806110ec57508373ffffffffffffffffffffffffffffffffffffffff166110d484610594565b73ffffffffffffffffffffffffffffffffffffffff16145b806110fd57506110fc8185610dd0565b5b91505092915050565b8273ffffffffffffffffffffffffffffffffffffffff1661112682610870565b73ffffffffffffffffffffffffffffffffffffffff161461117c576040517f08c379a0000000000000000000000000000000000000000000000000000000008152600401611173906121c8565b60405180910390fd5b600073ffffffffffffffffffffffffffffffffffffffff168273ffffffffffffffffffffffffffffffffffffffff1614156111ec576040517f08c379a00000000000000000000000000000000000000000000000000000000081526004016111e3906121e8565b60405180910390fd5b6111f7838383611887565b611202600082610f6f565b6001600360008573ffffffffffffffffffffffffffffffffffffffff1673ffffffffffffffffffffffffffffffffffffffff168152602001908152602001600020600082825461125291906124f6565b925050819055506001600360008473ffffffffffffffffffffffffffffffffffffffff1673ffffffffffffffffffffffffffffffffffffffff16815260200190815260200160002060008282546112a99190612415565b92505081905550816002600083815260200190815260200160002060006101000a81548173ffffffffffffffffffffffffffffffffffffffff021916908373ffffffffffffffffffffffffffffffffffffffff160217905550808273ffffffffffffffffffffffffffffffffffffffff168473ffffffffffffffffffffffffffffffffffffffff167fddf252ad1be2c89b69c2b068fc378daa952ba7f163c4a11628f55a4df523b3ef60405160405180910390a461136883838361188c565b505050565b8173ffffffffffffffffffffffffffffffffffffffff168373ffffffffffffffffffffffffffffffffffffffff1614156113dc576040517f08c379a00000000000000000000000000000000000000000000000000000000081526004016113d390612208565b60405180910390fd5b80600560008573ffffffffffffffffffffffffffffffffffffffff1673ffffffffffffffffffffffffffffffffffffffff16815260200190815260200160002060008473ffffffffffffffffffffffffffffffffffffffff1673ffffffffffffffffffffffffffffffffffffffff16815260200190815260200160002060006101000a81548160ff0219169083151502179055508173ffffffffffffffffffffffffffffffffffffffff168373ffffffffffffffffffffffffffffffffffffffff167f17307eab39ab6107e8899845ad3d59bd9653f200f220920489ca2b5937696c31836040516114cd919061214b565b60405180910390a3505050565b6114e5848484611106565b6114f184848484611891565b611530576040517f08c379a0000000000000000000000000000000000000000000000000000000008152600401611527906121a8565b60405180910390fd5b50505050565b606060068054611545906125e0565b80601f0160208091040260200160405190810160405280929190818152602001828054611571906125e0565b80156115be5780601f10611593576101008083540402835291602001916115be565b820191906000526020600020905b8154815290600101906020018083116115a157829003601f168201915b5050505050905090565b60606000821415611610576040518060400160405280600181526020017f30000000000000000000000000000000000000000000000000000000000000008152509050611770565b600082905060005b6000821461164257808061162b90612643565b915050600a8261163b919061246b565b9150611618565b60008167ffffffffffffffff811115611684577f4e487b7100000000000000000000000000000000000000000000000000000000600052604160045260246000fd5b6040519080825280601f01601f1916602001820160405280156116b65781602001600182028036833780820191505090505b5090505b60008514611769576001826116cf91906124f6565b9150600a856116de919061268c565b60306116ea9190612415565b60f81b818381518110611726577f4e487b7100000000000000000000000000000000000000000000000000000000600052603260045260246000fd5b60200101907effffffffffffffffffffffffffffffffffffffffffffffffffffffffffffff1916908160001a905350600a85611762919061246b565b94506116ba565b8093505050505b919050565b80600b600060016008546117899190612415565b815260200190815260200160002060008201518160000160006101000a81548173ffffffffffffffffffffffffffffffffffffffff021916908373ffffffffffffffffffffffffffffffffffffffff16021790555060208201518160010155905050600c81908060018154018082558091505060019003906000526020600020906002020160009091909190915060008201518160000160006101000a81548173ffffffffffffffffffffffffffffffffffffffff021916908373ffffffffffffffffffffffffffffffffffffffff16021790555060208201518160010155505060016008600082825461187d9190612415565b9250508190555050565b505050565b505050565b60006118b28473ffffffffffffffffffffffffffffffffffffffff16610e6e565b15611a1b578373ffffffffffffffffffffffffffffffffffffffff1663150b7a026118db610f67565b8786866040518563ffffffff1660e01b81526004016118fd94939291906120b4565b602060405180830381600087803b15801561191757600080fd5b505af192505050801561194857506040513d601f19601f820116820180604052508101906119459190611cc9565b60015b6119cb573d8060008114611978576040519150601f19603f3d011682016040523d82523d6000602084013e61197d565b606091505b506000815114156119c3576040517f08c379a00000000000000000000000000000000000000000000000000000000081526004016119ba906121a8565b60405180910390fd5b805181602001fd5b63150b7a0260e01b7bffffffffffffffffffffffffffffffffffffffffffffffffffffffff1916817bffffffffffffffffffffffffffffffffffffffffffffffffffffffff191614915050611a20565b600190505b949350505050565b6000611a3b611a3684612368565b612343565b905082815260208101848484011115611a5357600080fd5b611a5e84828561259e565b509392505050565b600081359050611a7581612b67565b92915050565b600081359050611a8a81612b7e565b92915050565b600081359050611a9f81612b95565b92915050565b600081519050611ab481612b95565b92915050565b600082601f830112611acb57600080fd5b8135611adb848260208601611a28565b91505092915050565b600081359050611af381612bac565b92915050565b600060208284031215611b0b57600080fd5b6000611b1984828501611a66565b91505092915050565b60008060408385031215611b3557600080fd5b6000611b4385828601611a66565b9250506020611b5485828601611a66565b9150509250929050565b600080600060608486031215611b7357600080fd5b6000611b8186828701611a66565b9350506020611b9286828701611a66565b9250506040611ba386828701611ae4565b9150509250925092565b60008060008060808587031215611bc357600080fd5b6000611bd187828801611a66565b9450506020611be287828801611a66565b9350506040611bf387828801611ae4565b925050606085013567ffffffffffffffff811115611c1057600080fd5b611c1c87828801611aba565b91505092959194509250565b60008060408385031215611c3b57600080fd5b6000611c4985828601611a66565b9250506020611c5a85828601611a7b565b9150509250929050565b60008060408385031215611c7757600080fd5b6000611c8585828601611a66565b9250506020611c9685828601611ae4565b9150509250929050565b600060208284031215611cb257600080fd5b6000611cc084828501611a90565b91505092915050565b600060208284031215611cdb57600080fd5b6000611ce984828501611aa5565b91505092915050565b600060208284031215611d0457600080fd5b6000611d1284828501611ae4565b91505092915050565b6000611d278383612028565b60408301905092915050565b611d3c8161252a565b82525050565b611d4b8161252a565b82525050565b6000611d5c826123a9565b611d6681856123d7565b9350611d7183612399565b8060005b83811015611da2578151611d898882611d1b565b9750611d94836123ca565b925050600181019050611d75565b5085935050505092915050565b611db88161253c565b82525050565b6000611dc9826123b4565b611dd381856123e8565b9350611de38185602086016125ad565b611dec81612779565b840191505092915050565b6000611e02826123bf565b611e0c81856123f9565b9350611e1c8185602086016125ad565b611e2581612779565b840191505092915050565b6000611e3b826123bf565b611e45818561240a565b9350611e558185602086016125ad565b80840191505092915050565b6000611e6e602b836123f9565b9150611e798261278a565b604082019050919050565b6000611e916032836123f9565b9150611e9c826127d9565b604082019050919050565b6000611eb46025836123f9565b9150611ebf82612828565b604082019050919050565b6000611ed76024836123f9565b9150611ee282612877565b604082019050919050565b6000611efa6019836123f9565b9150611f05826128c6565b602082019050919050565b6000611f1d602c836123f9565b9150611f28826128ef565b604082019050919050565b6000611f406038836123f9565b9150611f4b8261293e565b604082019050919050565b6000611f63602a836123f9565b9150611f6e8261298d565b604082019050919050565b6000611f866029836123f9565b9150611f91826129dc565b604082019050919050565b6000611fa9602c836123f9565b9150611fb482612a2b565b604082019050919050565b6000611fcc602f836123f9565b9150611fd782612a7a565b604082019050919050565b6000611fef6021836123f9565b9150611ffa82612ac9565b604082019050919050565b60006120126031836123f9565b915061201d82612b18565b604082019050919050565b60408201600082015161203e6000850182611d33565b5060208201516120516020850182612057565b50505050565b61206081612594565b82525050565b61206f81612594565b82525050565b60006120818285611e30565b915061208d8284611e30565b91508190509392505050565b60006020820190506120ae6000830184611d42565b92915050565b60006080820190506120c96000830187611d42565b6120d66020830186611d42565b6120e36040830185612066565b81810360608301526120f58184611dbe565b905095945050505050565b60006040820190506121156000830185611d42565b6121226020830184612066565b9392505050565b600060208201905081810360008301526121438184611d51565b905092915050565b60006020820190506121606000830184611daf565b92915050565b600060208201905081810360008301526121808184611df7565b905092915050565b600060208201905081810360008301526121a181611e61565b9050919050565b600060208201905081810360008301526121c181611e84565b9050919050565b600060208201905081810360008301526121e181611ea7565b9050919050565b6000602082019050818103600083015261220181611eca565b9050919050565b6000602082019050818103600083015261222181611eed565b9050919050565b6000602082019050818103600083015261224181611f10565b9050919050565b6000602082019050818103600083015261226181611f33565b9050919050565b6000602082019050818103600083015261228181611f56565b9050919050565b600060208201905081810360008301526122a181611f79565b9050919050565b600060208201905081810360008301526122c181611f9c565b9050919050565b600060208201905081810360008301526122e181611fbf565b9050919050565b6000602082019050818103600083015261230181611fe2565b9050919050565b6000602082019050818103600083015261232181612005565b9050919050565b600060208201905061233d6000830184612066565b92915050565b600061234d61235e565b90506123598282612612565b919050565b6000604051905090565b600067ffffffffffffffff8211156123835761238261274a565b5b61238c82612779565b9050602081019050919050565b6000819050602082019050919050565b600081519050919050565b600081519050919050565b600081519050919050565b6000602082019050919050565b600082825260208201905092915050565b600082825260208201905092915050565b600082825260208201905092915050565b600081905092915050565b600061242082612594565b915061242b83612594565b9250827fffffffffffffffffffffffffffffffffffffffffffffffffffffffffffffffff038211156124605761245f6126bd565b5b828201905092915050565b600061247682612594565b915061248183612594565b925082612491576124906126ec565b5b828204905092915050565b60006124a782612594565b91506124b283612594565b9250817fffffffffffffffffffffffffffffffffffffffffffffffffffffffffffffffff04831182151516156124eb576124ea6126bd565b5b828202905092915050565b600061250182612594565b915061250c83612594565b92508282101561251f5761251e6126bd565b5b828203905092915050565b600061253582612574565b9050919050565b60008115159050919050565b60007fffffffff0000000000000000000000000000000000000000000000000000000082169050919050565b600073ffffffffffffffffffffffffffffffffffffffff82169050919050565b6000819050919050565b82818337600083830152505050565b60005b838110156125cb5780820151818401526020810190506125b0565b838111156125da576000848401525b50505050565b600060028204905060018216806125f857607f821691505b6020821081141561260c5761260b61271b565b5b50919050565b61261b82612779565b810181811067ffffffffffffffff8211171561263a5761263961274a565b5b80604052505050565b600061264e82612594565b91507fffffffffffffffffffffffffffffffffffffffffffffffffffffffffffffffff821415612681576126806126bd565b5b600182019050919050565b600061269782612594565b91506126a283612594565b9250826126b2576126b16126ec565b5b828206905092915050565b7f4e487b7100000000000000000000000000000000000000000000000000000000600052601160045260246000fd5b7f4e487b7100000000000000000000000000000000000000000000000000000000600052601260045260246000fd5b7f4e487b7100000000000000000000000000000000000000000000000000000000600052602260045260246000fd5b7f4e487b7100000000000000000000000000000000000000000000000000000000600052604160045260246000fd5b6000601f19601f8301169050919050565b7f45746865722073656e742073686f756c6420626520657175616c20746f20637560008201527f7272656e74205072696365000000000000000000000000000000000000000000602082015250565b7f4552433732313a207472616e7366657220746f206e6f6e20455243373231526560008201527f63656976657220696d706c656d656e7465720000000000000000000000000000602082015250565b7f4552433732313a207472616e736665722066726f6d20696e636f72726563742060008201527f6f776e6572000000000000000000000000000000000000000000000000000000602082015250565b7f4552433732313a207472616e7366657220746f20746865207a65726f2061646460008201527f7265737300000000000000000000000000000000000000000000000000000000602082015250565b7f4552433732313a20617070726f766520746f2063616c6c657200000000000000600082015250565b7f4552433732313a206f70657261746f7220717565727920666f72206e6f6e657860008201527f697374656e7420746f6b656e0000000000000000000000000000000000000000602082015250565b7f4552433732313a20617070726f76652063616c6c6572206973206e6f74206f7760008201527f6e6572206e6f7220617070726f76656420666f7220616c6c0000000000000000602082015250565b7f4552433732313a2062616c616e636520717565727920666f7220746865207a6560008201527f726f206164647265737300000000000000000000000000000000000000000000602082015250565b7f4552433732313a206f776e657220717565727920666f72206e6f6e657869737460008201527f656e7420746f6b656e0000000000000000000000000000000000000000000000602082015250565b7f4552433732313a20617070726f76656420717565727920666f72206e6f6e657860008201527f697374656e7420746f6b656e0000000000000000000000000000000000000000602082015250565b7f4552433732314d657461646174613a2055524920717565727920666f72206e6f60008201527f6e6578697374656e7420746f6b656e0000000000000000000000000000000000602082015250565b7f4552433732313a20617070726f76616c20746f2063757272656e74206f776e6560008201527f7200000000000000000000000000000000000000000000000000000000000000602082015250565b7f4552433732313a207472616e736665722063616c6c6572206973206e6f74206f60008201527f776e6572206e6f7220617070726f766564000000000000000000000000000000602082015250565b612b708161252a565b8114612b7b57600080fd5b50565b612b878161253c565b8114612b9257600080fd5b50565b612b9e81612548565b8114612ba957600080fd5b50565b612bb581612594565b8114612bc057600080fd5b5056fea26469706673582212208402b727a58155191ec6075f2ee9a338e7960745df37e624c2efd844e244a7f964736f6c63430008010033",
  "linkReferences": {},
  "deployedLinkReferences": {}
}